{
  "_format": "hh-sol-artifact-1",
  "contractName": "ERC721ExchangeUpgradeableUpgraded",
  "sourceName": "contracts/mocks/ERC721ExchangeUpgradeableUpgraded.sol",
  "abi": [
    {
      "anonymous": false,
      "inputs": [
        {
          "indexed": false,
          "internalType": "address",
          "name": "buyer",
          "type": "address"
        },
        {
          "indexed": true,
          "internalType": "address",
          "name": "seller",
          "type": "address"
        },
        {
          "indexed": true,
          "internalType": "address",
          "name": "tokenContractAddress",
          "type": "address"
        },
        {
          "indexed": true,
          "internalType": "uint256",
          "name": "tokenId",
          "type": "uint256"
        },
        {
          "indexed": false,
          "internalType": "uint256",
          "name": "offer",
          "type": "uint256"
        }
      ],
      "name": "BuyOrderAccepted",
      "type": "event"
    },
    {
      "anonymous": false,
      "inputs": [
        {
          "indexed": true,
          "internalType": "address",
          "name": "buyer",
          "type": "address"
        },
        {
          "indexed": false,
          "internalType": "address",
          "name": "owner",
          "type": "address"
        },
        {
          "indexed": true,
          "internalType": "address",
          "name": "tokenContractAddress",
          "type": "address"
        },
        {
          "indexed": true,
          "internalType": "uint256",
          "name": "tokenId",
          "type": "uint256"
        },
        {
          "indexed": false,
          "internalType": "uint256",
          "name": "expiration",
          "type": "uint256"
        },
        {
          "indexed": false,
          "internalType": "uint256",
          "name": "offer",
          "type": "uint256"
        }
      ],
      "name": "BuyOrderBooked",
      "type": "event"
    },
    {
      "anonymous": false,
      "inputs": [
        {
          "indexed": true,
          "internalType": "address",
          "name": "buyer",
          "type": "address"
        },
        {
          "indexed": true,
          "internalType": "address",
          "name": "tokenContractAddress",
          "type": "address"
        },
        {
          "indexed": true,
          "internalType": "uint256",
          "name": "tokenId",
          "type": "uint256"
        }
      ],
      "name": "BuyOrderCanceled",
      "type": "event"
    },
    {
      "anonymous": false,
      "inputs": [
        {
          "indexed": true,
          "internalType": "address",
          "name": "buyer",
          "type": "address"
        },
        {
          "indexed": false,
          "internalType": "address",
          "name": "owner",
          "type": "address"
        },
        {
          "indexed": true,
          "internalType": "address",
          "name": "tokenContractAddress",
          "type": "address"
        },
        {
          "indexed": true,
          "internalType": "uint256",
          "name": "tokenId",
          "type": "uint256"
        },
        {
          "indexed": false,
          "internalType": "uint256",
          "name": "expiration",
          "type": "uint256"
        },
        {
          "indexed": false,
          "internalType": "uint256",
          "name": "offer",
          "type": "uint256"
        }
      ],
      "name": "BuyOrderUpdated",
      "type": "event"
    },
    {
      "anonymous": false,
      "inputs": [
        {
          "indexed": true,
          "internalType": "address",
          "name": "tokenContractAddress",
          "type": "address"
        },
        {
          "indexed": true,
          "internalType": "address",
          "name": "executor",
          "type": "address"
        },
        {
          "indexed": false,
          "internalType": "uint256",
          "name": "newRoyaltiesAmount",
          "type": "uint256"
        },
        {
          "indexed": false,
          "internalType": "uint256",
          "name": "oldRoyaltiesAmount",
          "type": "uint256"
        }
      ],
      "name": "CollectionRoyaltyFeeAmountUpdated",
      "type": "event"
    },
    {
      "anonymous": false,
      "inputs": [
        {
          "indexed": true,
          "internalType": "address",
          "name": "tokenContractAddress",
          "type": "address"
        },
        {
          "indexed": true,
          "internalType": "address",
          "name": "executor",
          "type": "address"
        },
        {
          "indexed": true,
          "internalType": "address",
          "name": "newPayoutAddress",
          "type": "address"
        },
        {
          "indexed": false,
          "internalType": "address",
          "name": "oldPayoutAddress",
          "type": "address"
        }
      ],
      "name": "CollectionRoyaltyPayoutAddressUpdated",
      "type": "event"
    },
    {
      "anonymous": false,
      "inputs": [
        {
          "indexed": true,
          "internalType": "address",
          "name": "previousOwner",
          "type": "address"
        },
        {
          "indexed": true,
          "internalType": "address",
          "name": "newOwner",
          "type": "address"
        }
      ],
      "name": "OwnershipTransferred",
      "type": "event"
    },
    {
      "anonymous": false,
      "inputs": [
        {
          "indexed": false,
          "internalType": "address",
          "name": "account",
          "type": "address"
        }
      ],
      "name": "Paused",
      "type": "event"
    },
    {
      "anonymous": false,
      "inputs": [
        {
          "indexed": true,
          "internalType": "address",
          "name": "seller",
          "type": "address"
        },
        {
          "indexed": true,
          "internalType": "address",
          "name": "tokenContractAddress",
          "type": "address"
        },
        {
          "indexed": true,
          "internalType": "uint256",
          "name": "tokenId",
          "type": "uint256"
        },
        {
          "indexed": false,
          "internalType": "uint256",
          "name": "expiration",
          "type": "uint256"
        },
        {
          "indexed": false,
          "internalType": "uint256",
          "name": "price",
          "type": "uint256"
        }
      ],
      "name": "SellOrderBooked",
      "type": "event"
    },
    {
      "anonymous": false,
      "inputs": [
        {
          "indexed": true,
          "internalType": "address",
          "name": "seller",
          "type": "address"
        },
        {
          "indexed": true,
          "internalType": "address",
          "name": "tokenContractAddress",
          "type": "address"
        },
        {
          "indexed": true,
          "internalType": "uint256",
          "name": "tokenId",
          "type": "uint256"
        }
      ],
      "name": "SellOrderCanceled",
      "type": "event"
    },
    {
      "anonymous": false,
      "inputs": [
        {
          "indexed": true,
          "internalType": "address",
          "name": "seller",
          "type": "address"
        },
        {
          "indexed": false,
          "internalType": "address",
          "name": "recipient",
          "type": "address"
        },
        {
          "indexed": false,
          "internalType": "address",
          "name": "buyer",
          "type": "address"
        },
        {
          "indexed": true,
          "internalType": "address",
          "name": "tokenContractAddress",
          "type": "address"
        },
        {
          "indexed": true,
          "internalType": "uint256",
          "name": "tokenId",
          "type": "uint256"
        },
        {
          "indexed": false,
          "internalType": "uint256",
          "name": "price",
          "type": "uint256"
        }
      ],
      "name": "SellOrderFufilled",
      "type": "event"
    },
    {
      "anonymous": false,
      "inputs": [
        {
          "indexed": true,
          "internalType": "address",
          "name": "seller",
          "type": "address"
        },
        {
          "indexed": true,
          "internalType": "address",
          "name": "tokenContractAddress",
          "type": "address"
        },
        {
          "indexed": true,
          "internalType": "uint256",
          "name": "tokenId",
          "type": "uint256"
        },
        {
          "indexed": false,
          "internalType": "uint256",
          "name": "expiration",
          "type": "uint256"
        },
        {
          "indexed": false,
          "internalType": "uint256",
          "name": "price",
          "type": "uint256"
        }
      ],
      "name": "SellOrderUpdated",
      "type": "event"
    },
    {
      "anonymous": false,
      "inputs": [
        {
          "indexed": false,
          "internalType": "address",
          "name": "account",
          "type": "address"
        }
      ],
      "name": "Unpaused",
      "type": "event"
    },
    {
      "inputs": [
        {
          "internalType": "uint256",
          "name": "__maxRoyaltyPerMille",
          "type": "uint256"
        },
        {
          "internalType": "uint256",
          "name": "__systemFeePerMille",
          "type": "uint256"
        },
        {
          "internalType": "address",
          "name": "__wethAddress",
          "type": "address"
        }
      ],
      "name": "__ERC721Exchange_init",
      "outputs": [],
      "stateMutability": "nonpayable",
      "type": "function"
    },
    {
      "inputs": [
        {
          "internalType": "address payable",
          "name": "_bidder",
          "type": "address"
        },
        {
          "internalType": "address",
          "name": "_tokenContractAddress",
          "type": "address"
        },
        {
          "internalType": "uint256",
          "name": "_tokenId",
          "type": "uint256"
        },
        {
          "internalType": "uint256",
          "name": "_expiration",
          "type": "uint256"
        },
        {
          "internalType": "uint256",
          "name": "_offer",
          "type": "uint256"
        }
      ],
      "name": "acceptBuyOrder",
      "outputs": [],
      "stateMutability": "nonpayable",
      "type": "function"
    },
    {
      "inputs": [
        {
          "internalType": "address",
          "name": "_buyer",
          "type": "address"
        },
        {
          "internalType": "address",
          "name": "_tokenContractAddress",
          "type": "address"
        },
        {
          "internalType": "uint256",
          "name": "_tokenId",
          "type": "uint256"
        }
      ],
      "name": "buyOrderExists",
      "outputs": [
        {
          "internalType": "bool",
          "name": "",
          "type": "bool"
        }
      ],
      "stateMutability": "view",
      "type": "function"
    },
    {
      "inputs": [
        {
          "internalType": "address",
          "name": "_tokenContractAddress",
          "type": "address"
        },
        {
          "internalType": "uint256",
          "name": "_tokenId",
          "type": "uint256"
        }
      ],
      "name": "cancelBuyOrder",
      "outputs": [],
      "stateMutability": "nonpayable",
      "type": "function"
    },
    {
      "inputs": [
        {
          "internalType": "address",
          "name": "_tokenContractAddress",
          "type": "address"
        },
        {
          "internalType": "uint256",
          "name": "_tokenId",
          "type": "uint256"
        }
      ],
      "name": "cancelSellOrder",
      "outputs": [],
      "stateMutability": "nonpayable",
      "type": "function"
    },
    {
      "inputs": [
        {
          "internalType": "address payable",
          "name": "_owner",
          "type": "address"
        },
        {
          "internalType": "address",
          "name": "_tokenContractAddress",
          "type": "address"
        },
        {
          "internalType": "uint256",
          "name": "_tokenId",
          "type": "uint256"
        },
        {
          "internalType": "uint256",
          "name": "_expiration",
          "type": "uint256"
        },
        {
          "internalType": "uint256",
          "name": "_offer",
          "type": "uint256"
        }
      ],
      "name": "createBuyOrder",
      "outputs": [],
      "stateMutability": "nonpayable",
      "type": "function"
    },
    {
      "inputs": [
        {
          "internalType": "address",
          "name": "_tokenContractAddress",
          "type": "address"
        },
        {
          "internalType": "uint256",
          "name": "_tokenId",
          "type": "uint256"
        },
        {
          "internalType": "uint256",
          "name": "_expiration",
          "type": "uint256"
        },
        {
          "internalType": "uint256",
          "name": "_price",
          "type": "uint256"
        }
      ],
      "name": "createSellOrder",
      "outputs": [],
      "stateMutability": "nonpayable",
      "type": "function"
    },
    {
      "inputs": [
        {
          "internalType": "address payable",
          "name": "_seller",
          "type": "address"
        },
        {
          "internalType": "address",
          "name": "_tokenContractAddress",
          "type": "address"
        },
        {
          "internalType": "uint256",
          "name": "_tokenId",
          "type": "uint256"
        },
        {
          "internalType": "uint256",
          "name": "_expiration",
          "type": "uint256"
        },
        {
          "internalType": "uint256",
          "name": "_price",
          "type": "uint256"
        },
        {
          "internalType": "address payable",
          "name": "_recipient",
          "type": "address"
        }
      ],
      "name": "executeSellOrder",
      "outputs": [],
      "stateMutability": "payable",
      "type": "function"
    },
    {
      "inputs": [
        {
          "internalType": "address",
          "name": "_buyer",
          "type": "address"
        },
        {
          "internalType": "address",
          "name": "_tokenContractAddress",
          "type": "address"
        },
        {
          "internalType": "uint256",
          "name": "_tokenId",
          "type": "uint256"
        }
      ],
      "name": "getBuyOrder",
      "outputs": [
        {
          "components": [
            {
              "internalType": "address payable",
              "name": "owner",
              "type": "address"
            },
            {
              "internalType": "uint256",
              "name": "expiration",
              "type": "uint256"
            },
            {
              "internalType": "uint256",
              "name": "offer",
              "type": "uint256"
            }
          ],
          "internalType": "struct ERC721ExchangeUpgradeable.BuyOrder",
          "name": "",
          "type": "tuple"
        }
      ],
      "stateMutability": "view",
      "type": "function"
    },
    {
      "inputs": [
        {
          "internalType": "address",
          "name": "_tokenContractAddress",
          "type": "address"
        }
      ],
      "name": "getRoyaltyPayoutAddress",
      "outputs": [
        {
          "internalType": "address",
          "name": "",
          "type": "address"
        }
      ],
      "stateMutability": "view",
      "type": "function"
    },
    {
      "inputs": [
        {
          "internalType": "address",
          "name": "_tokenContractAddress",
          "type": "address"
        }
      ],
      "name": "getRoyaltyPayoutRate",
      "outputs": [
        {
          "internalType": "uint256",
          "name": "",
          "type": "uint256"
        }
      ],
      "stateMutability": "view",
      "type": "function"
    },
    {
      "inputs": [
        {
          "internalType": "address",
          "name": "_seller",
          "type": "address"
        },
        {
          "internalType": "address",
          "name": "_tokenContractAddress",
          "type": "address"
        },
        {
          "internalType": "uint256",
          "name": "_tokenId",
          "type": "uint256"
        }
      ],
      "name": "getSellOrder",
      "outputs": [
        {
          "components": [
            {
              "internalType": "uint256",
              "name": "expiration",
              "type": "uint256"
            },
            {
              "internalType": "uint256",
              "name": "price",
              "type": "uint256"
            }
          ],
          "internalType": "struct ERC721ExchangeUpgradeable.SellOrder",
          "name": "",
          "type": "tuple"
        }
      ],
      "stateMutability": "view",
      "type": "function"
    },
    {
      "inputs": [],
      "name": "owner",
      "outputs": [
        {
          "internalType": "address",
          "name": "",
          "type": "address"
        }
      ],
      "stateMutability": "view",
      "type": "function"
    },
    {
      "inputs": [],
      "name": "pause",
      "outputs": [],
      "stateMutability": "nonpayable",
      "type": "function"
    },
    {
      "inputs": [],
      "name": "paused",
      "outputs": [
        {
          "internalType": "bool",
          "name": "",
          "type": "bool"
        }
      ],
      "stateMutability": "view",
      "type": "function"
    },
    {
      "inputs": [],
      "name": "renounceOwnership",
      "outputs": [],
      "stateMutability": "nonpayable",
      "type": "function"
    },
    {
      "inputs": [
        {
          "internalType": "address",
          "name": "_seller",
          "type": "address"
        },
        {
          "internalType": "address",
          "name": "_tokenContractAddress",
          "type": "address"
        },
        {
          "internalType": "uint256",
          "name": "_tokenId",
          "type": "uint256"
        }
      ],
      "name": "sellOrderExists",
      "outputs": [
        {
          "internalType": "bool",
          "name": "",
          "type": "bool"
        }
      ],
      "stateMutability": "view",
      "type": "function"
    },
    {
      "inputs": [
        {
          "internalType": "address",
          "name": "_tokenContractAddress",
          "type": "address"
        },
        {
          "internalType": "address payable",
          "name": "_payoutAddress",
          "type": "address"
        },
        {
          "internalType": "uint256",
          "name": "_payoutPerMille",
          "type": "uint256"
        }
      ],
      "name": "setRoyalty",
      "outputs": [],
      "stateMutability": "nonpayable",
      "type": "function"
    },
    {
      "inputs": [
        {
          "internalType": "uint256",
          "name": "_newSystemFeePerMille",
          "type": "uint256"
        }
      ],
      "name": "setSystemFeePerMille",
      "outputs": [],
      "stateMutability": "nonpayable",
      "type": "function"
    },
    {
      "inputs": [
        {
          "internalType": "address payable",
          "name": "_newSystemFeeWallet",
          "type": "address"
        }
      ],
      "name": "setSystemFeeWallet",
      "outputs": [],
      "stateMutability": "nonpayable",
      "type": "function"
    },
    {
      "inputs": [
        {
          "internalType": "address",
          "name": "newOwner",
          "type": "address"
        }
      ],
      "name": "transferOwnership",
      "outputs": [],
      "stateMutability": "nonpayable",
      "type": "function"
    },
    {
      "inputs": [],
      "name": "unpause",
      "outputs": [],
      "stateMutability": "nonpayable",
      "type": "function"
    },
    {
      "inputs": [
        {
          "internalType": "address payable",
          "name": "_owner",
          "type": "address"
        },
        {
          "internalType": "address",
          "name": "_tokenContractAddress",
          "type": "address"
        },
        {
          "internalType": "uint256",
          "name": "_tokenId",
          "type": "uint256"
        },
        {
          "internalType": "uint256",
          "name": "_expiration",
          "type": "uint256"
        },
        {
          "internalType": "uint256",
          "name": "_offer",
          "type": "uint256"
        }
      ],
      "name": "updateBuyOrder",
      "outputs": [],
      "stateMutability": "nonpayable",
      "type": "function"
    },
    {
      "inputs": [
        {
          "internalType": "address",
          "name": "_tokenContractAddress",
          "type": "address"
        },
        {
          "internalType": "uint256",
          "name": "_tokenId",
          "type": "uint256"
        },
        {
          "internalType": "uint256",
          "name": "_expiration",
          "type": "uint256"
        },
        {
          "internalType": "uint256",
          "name": "_price",
          "type": "uint256"
        }
      ],
      "name": "updateSellOrder",
      "outputs": [],
      "stateMutability": "nonpayable",
      "type": "function"
    },
    {
      "inputs": [],
      "name": "version",
      "outputs": [
        {
          "internalType": "string",
          "name": "",
          "type": "string"
        }
      ],
      "stateMutability": "pure",
      "type": "function"
    },
    {
      "inputs": [],
      "name": "withdraw",
      "outputs": [],
      "stateMutability": "nonpayable",
      "type": "function"
    }
  ],
  "bytecode": "0x608060405234801561001057600080fd5b506133f3806100206000396000f3fe6080604052600436106101815760003560e01c80635c975abb116100d1578063a831193f1161008a578063ceda1cb511610064578063ceda1cb51461047b578063ec4210ff1461049b578063f2fde38b146104df578063fcce8f0d146104ff57610181565b8063a831193f14610400578063b50221b61461043b578063b6bbccfd1461045b57610181565b80635c975abb1461036057806369e1ce321461037857806370e9ff6014610398578063715018a6146103b85780638456cb59146103cd5780638da5cb5b146103e257610181565b80633871462b1161013e578063438aeabc11610118578063438aeabc146102cb57806354fd4d50146102eb57806355c338aa146103205780635977c92c1461034057610181565b80633871462b1461028e5780633ccfd60b146102a15780633f4ba83a146102b657610181565b8063145131d0146101865780631b2e5e4a146101a85780632993ed2d146101c85780632df5cb23146101e85780632f113b751461023e57806337741aed1461025e575b600080fd5b34801561019257600080fd5b506101a66101a1366004612f0d565b61052c565b005b3480156101b457600080fd5b506101a66101c3366004612dec565b61057f565b3480156101d457600080fd5b506101a66101e3366004612ee2565b610688565b3480156101f457600080fd5b50610221610203366004612dad565b6001600160a01b03908116600090815260cd60205260409020541690565b6040516001600160a01b0390911681526020015b60405180910390f35b34801561024a57600080fd5b506101a6610259366004612f67565b610711565b34801561026a57600080fd5b5061027e610279366004612ea2565b610740565b6040519015158152602001610235565b6101a661029c366004612e3c565b61079e565b3480156102ad57600080fd5b506101a66108e4565b3480156102c257600080fd5b506101a661093d565b3480156102d757600080fd5b506101a66102e6366004612dec565b610971565b3480156102f757600080fd5b5060408051808201825260068152653b189718171960d11b60208201529051610235919061300f565b34801561032c57600080fd5b506101a661033b366004612ea2565b610a6f565b34801561034c57600080fd5b506101a661035b366004612f0d565b610d10565b34801561036c57600080fd5b5060655460ff1661027e565b34801561038457600080fd5b506101a6610393366004612dec565b610d53565b3480156103a457600080fd5b506101a66103b3366004612ee2565b610e54565b3480156103c457600080fd5b506101a6610ed9565b3480156103d957600080fd5b506101a6610f0d565b3480156103ee57600080fd5b506033546001600160a01b0316610221565b34801561040c57600080fd5b5061042061041b366004612ea2565b610f3f565b60408051825181526020928301519281019290925201610235565b34801561044757600080fd5b506101a6610456366004612dad565b610ff3565b34801561046757600080fd5b506101a6610476366004612f97565b61103f565b34801561048757600080fd5b5061027e610496366004612ea2565b611149565b3480156104a757600080fd5b506104d16104b6366004612dad565b6001600160a01b0316600090815260ce602052604090205490565b604051908152602001610235565b3480156104eb57600080fd5b506101a66104fa366004612dad565b611199565b34801561050b57600080fd5b5061051f61051a366004612ea2565b611234565b60405161023591906132e6565b60655460ff16156105585760405162461bcd60e51b815260040161054f906131b5565b60405180910390fd5b604080518082019091528281526020810182905261057833868684611314565b5050505050565b60655460ff16156105a25760405162461bcd60e51b815260040161054f906131b5565b60c95481906001600160a01b031663dd62ed3e336040516001600160e01b031960e084901b1681526001600160a01b03909116600482015230602482015260440160206040518083038186803b1580156105fb57600080fd5b505afa15801561060f573d6000803e3d6000fd5b505050506040513d601f19601f820116820180604052508101906106339190612f7f565b10156106515760405162461bcd60e51b815260040161054f906130fb565b604080516060810182526001600160a01b038716815260208101849052908101829052610680338686846115ac565b505050505050565b60655460ff16156106ab5760405162461bcd60e51b815260040161054f906131b5565b6106b6338383611149565b6107025760405162461bcd60e51b815260206004820152601f60248201527f546869732073656c6c206f7264657220646f6573206e6f742065786973742e00604482015260640161054f565b61070d3383836117b0565b5050565b6033546001600160a01b0316331461073b5760405162461bcd60e51b815260040161054f906131df565b60cb55565b60008060d0610750868686611821565b60405161075d9190612fcf565b908152604080516020928190038301812060608201835280546001600160a01b03168252600181015493820184905260020154910152151595945050505050565b60655460ff16156107c15760405162461bcd60e51b815260040161054f906131b5565b600260975414156108145760405162461bcd60e51b815260206004820152601f60248201527f5265656e7472616e637947756172643a207265656e7472616e742063616c6c00604482015260640161054f565b6002609755348211156108855760405162461bcd60e51b815260206004820152603360248201527f596f7572207472616e73616374696f6e20646f65736e2774206861766520746860448201527232903932b8bab4b932b2103830bcb6b2b73a1760691b606482015260840161054f565b600060405180604001604052808581526020018481525090506108d6878787846040518060400160405280886001600160a01b031681526020016108c63390565b6001600160a01b0316905261187e565b505060016097555050505050565b6033546001600160a01b0316331461090e5760405162461bcd60e51b815260040161054f906131df565b6040514790339082156108fc029083906000818181858888f1935050505015801561070d573d6000803e3d6000fd5b6033546001600160a01b031633146109675760405162461bcd60e51b815260040161054f906131df565b61096f611e5d565b565b60655460ff16156109945760405162461bcd60e51b815260040161054f906131b5565b60c954604051636eb1769f60e11b81526001600160a01b0387811660048301523060248301528392169063dd62ed3e9060440160206040518083038186803b1580156109df57600080fd5b505afa1580156109f3573d6000803e3d6000fd5b505050506040513d601f19601f82011682018060405250810190610a179190612f7f565b1015610a355760405162461bcd60e51b815260040161054f906130fb565b60006040518060600160405280610a493390565b6001600160a01b0316815260200184815260200183815250905061068086868684611ef0565b60cc54811115600a60cc54610a849190613310565b6040517f526f79616c7479206d757374206265206265747765656e203020616e642000006020820152603e810191909152602560f81b605e820152605f0160405160208183030381529060405290610aef5760405162461bcd60e51b815260040161054f919061300f565b50610b0a6001600160a01b0384166380ac58cd60e01b612452565b610b265760405162461bcd60e51b815260040161054f90613214565b6000839050806001600160a01b0316638da5cb5b6040518163ffffffff1660e01b815260040160206040518083038186803b158015610b6457600080fd5b505afa158015610b78573d6000803e3d6000fd5b505050506040513d601f19601f82011682018060405250810190610b9c9190612dd0565b6001600160a01b0316336001600160a01b03161480610bc557506033546001600160a01b031633145b610c0a5760405162461bcd60e51b8152602060048201526016602482015275105111149154d4d7d393d517d055551213d49256915160521b604482015260640161054f565b6001600160a01b03848116600081815260cd602090815260409182902054825190851681529151938716933393927f22b4c9bae1c03b433a3b239b13770550aa93e69b0ac8b7becd4345d2bb2b93f692908290030190a46001600160a01b03848116600090815260cd6020526040902080546001600160a01b031916918516919091179055610c963390565b6001600160a01b03858116600081815260ce602090815260409182902054825188815291820152939092169290917fc79f434969d42d2d3a041a740a67d2c62cf2613f5c52b5e90e2fdda35a5de9ec910160405180910390a3506001600160a01b03909216600090815260ce602052604090209190915550565b60655460ff1615610d335760405162461bcd60e51b815260040161054f906131b5565b604080518082019091528281526020810182905261057833868684612477565b60655460ff1615610d765760405162461bcd60e51b815260040161054f906131b5565b60c95481906001600160a01b031663dd62ed3e336040516001600160e01b031960e084901b1681526001600160a01b03909116600482015230602482015260440160206040518083038186803b158015610dcf57600080fd5b505afa158015610de3573d6000803e3d6000fd5b505050506040513d601f19601f82011682018060405250810190610e079190612f7f565b1015610e255760405162461bcd60e51b815260040161054f906130fb565b604080516060810182526001600160a01b03871681526020810184905290810182905261068033868684612701565b60655460ff1615610e775760405162461bcd60e51b815260040161054f906131b5565b610e82338383610740565b610ece5760405162461bcd60e51b815260206004820152601e60248201527f5468697320627579206f7264657220646f6573206e6f742065786973742e0000604482015260640161054f565b61070d338383612934565b6033546001600160a01b03163314610f035760405162461bcd60e51b815260040161054f906131df565b61096f60006129b7565b6033546001600160a01b03163314610f375760405162461bcd60e51b815260040161054f906131df565b61096f612a09565b6040805180820190915260008082526020820152610f5e848484611149565b610faa5760405162461bcd60e51b815260206004820152601f60248201527f546869732073656c6c206f7264657220646f6573206e6f742065786973742e00604482015260640161054f565b60cf610fb7858585611821565b604051610fc49190612fcf565b908152604080519182900360209081018320838301909252815483526001909101549082015290509392505050565b6033546001600160a01b0316331461101d5760405162461bcd60e51b815260040161054f906131df565b60ca80546001600160a01b0319166001600160a01b0392909216919091179055565b600054610100900460ff1661105a5760005460ff161561105e565b303b155b6110c15760405162461bcd60e51b815260206004820152602e60248201527f496e697469616c697a61626c653a20636f6e747261637420697320616c72656160448201526d191e481a5b9a5d1a585b1a5e995960921b606482015260840161054f565b600054610100900460ff161580156110ec576000805460ff1961ff0019909116610100171660011790555b6110f4612a61565b6110fc612a90565b611104612ac7565b61110c612afe565b60cc84905560cb83905560c980546001600160a01b0319166001600160a01b0384161790558015611143576000805461ff00191690555b50505050565b60008060cf611159868686611821565b6040516111669190612fcf565b90815260408051602092819003830181208183019092528154808252600190920154920191909152151595945050505050565b6033546001600160a01b031633146111c35760405162461bcd60e51b815260040161054f906131df565b6001600160a01b0381166112285760405162461bcd60e51b815260206004820152602660248201527f4f776e61626c653a206e6577206f776e657220697320746865207a65726f206160448201526564647265737360d01b606482015260840161054f565b611231816129b7565b50565b611261604051806060016040528060006001600160a01b0316815260200160008152602001600081525090565b61126c848484610740565b6112b85760405162461bcd60e51b815260206004820152601e60248201527f5468697320627579206f7264657220646f6573206e6f742065786973742e0000604482015260640161054f565b60d06112c5858585611821565b6040516112d29190612fcf565b90815260408051918290036020908101832060608401835280546001600160a01b03168452600181015491840191909152600201549082015290509392505050565b61131f848484611149565b61136b5760405162461bcd60e51b815260206004820152601a60248201527f54686973206f7264657220646f65736e2774206578697374732e000000000000604482015260640161054f565b6113856001600160a01b0384166380ac58cd60e01b612452565b6113a15760405162461bcd60e51b815260040161054f90613214565b805142106113c15760405162461bcd60e51b815260040161054f9061317e565b6040516331a9108f60e11b81526004810183905283906001600160a01b038681169190831690636352211e9060240160206040518083038186803b15801561140857600080fd5b505afa15801561141c573d6000803e3d6000fd5b505050506040513d601f19601f820116820180604052508101906114409190612dd0565b6001600160a01b0316146114665760405162461bcd60e51b815260040161054f906130b1565b60405163020604bf60e21b81526004810184905230906001600160a01b0383169063081812fc9060240160206040518083038186803b1580156114a857600080fd5b505afa1580156114bc573d6000803e3d6000fd5b505050506040513d601f19601f820116820180604052508101906114e09190612dd0565b6001600160a01b0316146115065760405162461bcd60e51b815260040161054f90613042565b8160cf611514878787611821565b6040516115219190612fcf565b9081526020016040518091039020600082015181600001556020820151816001015590505082846001600160a01b0316866001600160a01b03167fa536b30631962e18c4c8227fa809220e94ea269bac35859efbc569ccf78982f08560000151866020015160405161159d929190918252602082015260400190565b60405180910390a45050505050565b6115b7848484610740565b156116045760405162461bcd60e51b815260206004820152601a60248201527f54686973206f7264657220616c7265616479206578697374732e000000000000604482015260640161054f565b61161e6001600160a01b0384166380ac58cd60e01b612452565b61163a5760405162461bcd60e51b815260040161054f90613214565b8060200151421061165d5760405162461bcd60e51b815260040161054f9061317e565b80516040516331a9108f60e11b81526004810184905284916001600160a01b039081169190831690636352211e9060240160206040518083038186803b1580156116a657600080fd5b505afa1580156116ba573d6000803e3d6000fd5b505050506040513d601f19601f820116820180604052508101906116de9190612dd0565b6001600160a01b0316146117045760405162461bcd60e51b815260040161054f9061323e565b8160d0611712878787611821565b60405161171f9190612fcf565b9081526040805160209281900383018120845181546001600160a01b0319166001600160a01b03918216178255858501516001830155948301516002909101558551868401518784015191861683529382019390935290810191909152849186811691908816907f69e98887027fa435a3ef2f96aeec2a2e7d88e19196d7afb8eebcad1a31ee61009060600161159d565b60cf6117bd848484611821565b6040516117ca9190612fcf565b9081526040519081900360200181206000808255600190910181905582916001600160a01b0380861692908716917f1df1e161692f4f870c425180866da985448ed76f0ff746b99437c81f09254de99190a4505050565b604051606084811b6bffffffffffffffffffffffff199081166020840152602d60f81b6034840181905285831b90911660358401526049830152604a820183905290606a0160405160208183030381529060405290509392505050565b600061188b868686610f3f565b90506118978184612b2d565b611914576118a68686866117b0565b60405162461bcd60e51b815260206004820152603c60248201527f5061737365642073656c6c206f72646572206461746120646f65736e2774206560448201527f7175616c2073746f7265642073656c6c206f7264657220646174612e00000000606482015260840161054f565b61192e6001600160a01b0386166380ac58cd60e01b612452565b6119555761193d8686866117b0565b60405162461bcd60e51b815260040161054f90613214565b80514210611980576119688686866117b0565b60405162461bcd60e51b815260040161054f9061317e565b6040516331a9108f60e11b81526004810185905285906001600160a01b038881169190831690636352211e9060240160206040518083038186803b1580156119c757600080fd5b505afa1580156119db573d6000803e3d6000fd5b505050506040513d601f19601f820116820180604052508101906119ff9190612dd0565b6001600160a01b031614611a3057611a188787876117b0565b60405162461bcd60e51b815260040161054f906130b1565b60405163020604bf60e21b81526004810186905230906001600160a01b0383169063081812fc9060240160206040518083038186803b158015611a7257600080fd5b505afa158015611a86573d6000803e3d6000fd5b505050506040513d601f19601f82011682018060405250810190611aaa9190612dd0565b6001600160a01b031614611adb57611ac38787876117b0565b60405162461bcd60e51b815260040161054f90613042565b6001600160a01b038616600090815260ce60205260408120546103e890611b03903490613330565b611b0d9190613310565b905060006103e83460cb54611b229190613330565b611b2c9190613310565b9050600081611b3b843461334f565b611b45919061334f565b90508215611c22576001600160a01b03898116600090815260cd60205260408082205490519216918190839087908381818185875af1925050503d8060008114611bab576040519150601f19603f3d011682016040523d82523d6000602084013e611bb0565b606091505b509150915081611c1e5760405162461bcd60e51b815260206004820152603360248201527f4661696c656420746f2073656e642045544820746f20636f6c6c656374696f6e60448201527232103937bcb0b63a34b2b9903bb0b63632ba1760691b606482015260840161054f565b5050505b60ca5460405160009182916001600160a01b039091169085908381818185875af1925050503d8060008114611c73576040519150601f19603f3d011682016040523d82523d6000602084013e611c78565b606091505b509150915081611cdb5760405162461bcd60e51b815260206004820152602860248201527f4661696c656420746f2073656e642045544820746f2073797374656d20666565604482015267103bb0b63632ba1760c11b606482015260840161054f565b6000808d6001600160a01b03168560405160006040518083038185875af1925050503d8060008114611d29576040519150601f19603f3d011682016040523d82523d6000602084013e611d2e565b606091505b509150915081611d805760405162461bcd60e51b815260206004820152601d60248201527f4661696c656420746f2073656e642045544820746f2073656c6c65722e000000604482015260640161054f565b876001600160a01b03166342842e0e8f8c600001518f6040518463ffffffff1660e01b8152600401611db493929190612feb565b600060405180830381600087803b158015611dce57600080fd5b505af1158015611de2573d6000803e3d6000fd5b50505050611df18e8e8e6117b0565b8b8d6001600160a01b03168f6001600160a01b03167fe1b95a6ef7a4ded760630775e84919c85bbdc7b85ecce61ff8834b624b9f4b0a8d600001518e602001518e60200151604051611e4593929190612feb565b60405180910390a45050505050505050505050505050565b60655460ff16611ea65760405162461bcd60e51b815260206004820152601460248201527314185d5cd8589b194e881b9bdd081c185d5cd95960621b604482015260640161054f565b6065805460ff191690557f5db9ee0a495bf2e6ff9c91a7834c1ba4fdd244a5e8aa4e537bd38aeae4b073aa335b6040516001600160a01b03909116815260200160405180910390a1565b6000611efd858585611234565b9050611f098282612b9f565b611f8657611f18858585612934565b60405162461bcd60e51b815260206004820152603a60248201527f50617373656420627579206f72646572206461746120646f65736e277420657160448201527f75616c2073746f72656420627579206f7264657220646174612e000000000000606482015260840161054f565b611fa06001600160a01b0385166380ac58cd60e01b612452565b611faf5761193d858585612934565b8060200151421061200d57611fc5858585612934565b60405162461bcd60e51b815260206004820152601b60248201527f5468697320627579206f726465722068617320657870697265642e0000000000604482015260640161054f565b80516040516331a9108f60e11b81526004810185905285916001600160a01b039081169190831690636352211e9060240160206040518083038186803b15801561205657600080fd5b505afa15801561206a573d6000803e3d6000fd5b505050506040513d601f19601f8201168201806040525081019061208e9190612dd0565b6001600160a01b0316146120bf576120a7868686612934565b60405162461bcd60e51b815260040161054f9061323e565b60405163020604bf60e21b81526004810185905230906001600160a01b0383169063081812fc9060240160206040518083038186803b15801561210157600080fd5b505afa158015612115573d6000803e3d6000fd5b505050506040513d601f19601f820116820180604052508101906121399190612dd0565b6001600160a01b03161461215257611ac3868686612934565b6040808301516001600160a01b038716600090815260ce602052918220546103e89161217d91613330565b6121879190613310565b905060006103e8846040015160cb546121a09190613330565b6121aa9190613310565b90506000818386604001516121bf919061334f565b6121c9919061334f565b90508215612272576001600160a01b03808916600090815260cd6020526040908190205460c95491516323b872dd60e01b81529083169291909116906323b872dd9061221d908d9085908990600401612feb565b602060405180830381600087803b15801561223757600080fd5b505af115801561224b573d6000803e3d6000fd5b505050506040513d601f19601f8201168201806040525081019061226f9190612f47565b50505b60c95460ca546040516323b872dd60e01b81526001600160a01b03928316926323b872dd926122ab928e92909116908790600401612feb565b602060405180830381600087803b1580156122c557600080fd5b505af11580156122d9573d6000803e3d6000fd5b505050506040513d601f19601f820116820180604052508101906122fd9190612f47565b5060c95485516040516323b872dd60e01b81526001600160a01b03909216916323b872dd91612333918d91908690600401612feb565b602060405180830381600087803b15801561234d57600080fd5b505af1158015612361573d6000803e3d6000fd5b505050506040513d601f19601f820116820180604052508101906123859190612f47565b508451604051632142170760e11b81526001600160a01b038616916342842e0e916123b791908d908c90600401612feb565b600060405180830381600087803b1580156123d157600080fd5b505af11580156123e5573d6000803e3d6000fd5b505050506123f4898989612934565b845160408087015181516001600160a01b038d8116825260208201929092528a93828d16939216917f94b48c7778c6817ef6a472e749400b400e72b80fcb9acf94197296e996bd3af5910160405180910390a4505050505050505050565b600061245d83612bd9565b801561246e575061246e8383612c0c565b90505b92915050565b612482848484611149565b156124cf5760405162461bcd60e51b815260206004820152601a60248201527f54686973206f7264657220616c7265616479206578697374732e000000000000604482015260640161054f565b6124e96001600160a01b0384166380ac58cd60e01b612452565b6125055760405162461bcd60e51b815260040161054f90613214565b805142106125255760405162461bcd60e51b815260040161054f9061317e565b6040516331a9108f60e11b81526004810183905283906001600160a01b038681169190831690636352211e9060240160206040518083038186803b15801561256c57600080fd5b505afa158015612580573d6000803e3d6000fd5b505050506040513d601f19601f820116820180604052508101906125a49190612dd0565b6001600160a01b0316146125ca5760405162461bcd60e51b815260040161054f906130b1565b60405163020604bf60e21b81526004810184905230906001600160a01b0383169063081812fc9060240160206040518083038186803b15801561260c57600080fd5b505afa158015612620573d6000803e3d6000fd5b505050506040513d601f19601f820116820180604052508101906126449190612dd0565b6001600160a01b03161461266a5760405162461bcd60e51b815260040161054f90613042565b8160cf612678878787611821565b6040516126859190612fcf565b9081526020016040518091039020600082015181600001556020820151816001015590505082846001600160a01b0316866001600160a01b03167fe6420032b5493b7dd10adf90b2964ea69a715cdecc7251b4e57865860a46288b8560000151866020015160405161159d929190918252602082015260400190565b61270c848484610740565b6127585760405162461bcd60e51b815260206004820152601a60248201527f54686973206f7264657220646f65736e2774206578697374732e000000000000604482015260640161054f565b6127726001600160a01b0384166380ac58cd60e01b612452565b61278e5760405162461bcd60e51b815260040161054f90613214565b806020015142106127e15760405162461bcd60e51b815260206004820152601a60248201527f5468697320627579206f7264657220697320657870697265642e000000000000604482015260640161054f565b80516040516331a9108f60e11b81526004810184905284916001600160a01b039081169190831690636352211e9060240160206040518083038186803b15801561282a57600080fd5b505afa15801561283e573d6000803e3d6000fd5b505050506040513d601f19601f820116820180604052508101906128629190612dd0565b6001600160a01b0316146128885760405162461bcd60e51b815260040161054f9061323e565b8160d0612896878787611821565b6040516128a39190612fcf565b9081526040805160209281900383018120845181546001600160a01b0319166001600160a01b03918216178255858501516001830155948301516002909101558551868401518784015191861683529382019390935290810191909152849186811691908816907f65f339a58fecb773afe62d56cb07f925f191212e1cc6a4b5beb71a550021465d9060600161159d565b60d0612941848484611821565b60405161294e9190612fcf565b90815260405190819003602001812080546001600160a01b0319168155600060018201819055600290910181905582916001600160a01b0385811692908716917f9617b39e1c2364cae1638fdd9dc06edb1611fe02ff3304a2ff823054d6c09c439190a4505050565b603380546001600160a01b038381166001600160a01b0319831681179093556040519116919082907f8be0079c531659141344cd1fd0a4f28419497f9722a3daafe3b4186f6b6457e090600090a35050565b60655460ff1615612a2c5760405162461bcd60e51b815260040161054f906131b5565b6065805460ff191660011790557f62e78cea01bee320cd4e420270b5ea74000d11b0c9f74754ebdbfc544b05a258611ed33390565b600054610100900460ff16612a885760405162461bcd60e51b815260040161054f9061329b565b61096f612cf5565b600054610100900460ff16612ab75760405162461bcd60e51b815260040161054f9061329b565b612abf612cf5565b61096f612d1c565b600054610100900460ff16612aee5760405162461bcd60e51b815260040161054f9061329b565b612af6612cf5565b61096f612d4c565b600054610100900460ff16612b255760405162461bcd60e51b815260040161054f9061329b565b61096f612d7f565b600081604051602001612b529190815181526020918201519181019190915260400190565b60408051601f1981840301815282825280516020918201208651848301529086015191830191909152906060015b6040516020818303038152906040528051906020012014905092915050565b600081604051602001612bb291906132e6565b6040516020818303038152906040528051906020012083604051602001612b8091906132e6565b6000612bec826301ffc9a760e01b612c0c565b80156124715750612c05826001600160e01b0319612c0c565b1592915050565b604080516001600160e01b0319831660248083019190915282518083039091018152604490910182526020810180516001600160e01b03166301ffc9a760e01b179052905160009190829081906001600160a01b0387169061753090612c73908690612fcf565b6000604051808303818686fa925050503d8060008114612caf576040519150601f19603f3d011682016040523d82523d6000602084013e612cb4565b606091505b5091509150602081511015612ccf5760009350505050612471565b818015612ceb575080806020019051810190612ceb9190612f47565b9695505050505050565b600054610100900460ff1661096f5760405162461bcd60e51b815260040161054f9061329b565b600054610100900460ff16612d435760405162461bcd60e51b815260040161054f9061329b565b61096f336129b7565b600054610100900460ff16612d735760405162461bcd60e51b815260040161054f9061329b565b6065805460ff19169055565b600054610100900460ff16612da65760405162461bcd60e51b815260040161054f9061329b565b6001609755565b600060208284031215612dbe578081fd5b8135612dc9816133a8565b9392505050565b600060208284031215612de1578081fd5b8151612dc9816133a8565b600080600080600060a08688031215612e03578081fd5b8535612e0e816133a8565b94506020860135612e1e816133a8565b94979496505050506040830135926060810135926080909101359150565b60008060008060008060c08789031215612e54578081fd5b8635612e5f816133a8565b95506020870135612e6f816133a8565b945060408701359350606087013592506080870135915060a0870135612e94816133a8565b809150509295509295509295565b600080600060608486031215612eb6578283fd5b8335612ec1816133a8565b92506020840135612ed1816133a8565b929592945050506040919091013590565b60008060408385031215612ef4578182fd5b8235612eff816133a8565b946020939093013593505050565b60008060008060808587031215612f22578384fd5b8435612f2d816133a8565b966020860135965060408601359560600135945092505050565b600060208284031215612f58578081fd5b81518015158114612dc9578182fd5b600060208284031215612f78578081fd5b5035919050565b600060208284031215612f90578081fd5b5051919050565b600080600060608486031215612fab578283fd5b83359250602084013591506040840135612fc4816133a8565b809150509250925092565b60008251612fe1818460208701613366565b9190910192915050565b6001600160a01b039384168152919092166020820152604081019190915260600190565b600060208252825180602084015261302e816040850160208701613366565b601f01601f19169190910160400192915050565b60208082526049908201527f5468652045524337323145786368616e676520636f6e7472616374206973206e60408201527f6f7420617070726f76656420746f206f706572617465207468697320455243376060820152681918903a37b5b2b71760b91b608082015260a00190565b6020808252602a908201527f5468652073656c6c657220646f6573206e6f74206f776e2074686973204552436040820152691b9918903a37b5b2b71760b11b606082015260800190565b6020808252605e908201527f5468652045524337323145786368616e676520636f6e7472616374206973206e60408201527f6f7420617070726f76656420746f206f7065726174652061207375666669636960608201527f656e7420616d6f756e74206f66207468652062757965727320574554482e0000608082015260a00190565b6020808252601b908201527f546869732073656c6c206f7264657220697320657870697265642e0000000000604082015260600190565b60208082526010908201526f14185d5cd8589b194e881c185d5cd95960821b604082015260600190565b6020808252818101527f4f776e61626c653a2063616c6c6572206973206e6f7420746865206f776e6572604082015260600190565b60208082526010908201526f24a9afa727aa2f9b9918afaa27a5a2a760811b604082015260600190565b6020808252603c908201527f5468652064657369726564204275794f7264657220226f776e65722220646f6560408201527f73206e6f74206f776e20746869732045524337323120746f6b656e2e00000000606082015260800190565b6020808252602b908201527f496e697469616c697a61626c653a20636f6e7472616374206973206e6f74206960408201526a6e697469616c697a696e6760a81b606082015260800190565b81516001600160a01b03168152602080830151908201526040918201519181019190915260600190565b60008261332b57634e487b7160e01b81526012600452602481fd5b500490565b600081600019048311821515161561334a5761334a613392565b500290565b60008282101561336157613361613392565b500390565b60005b83811015613381578181015183820152602001613369565b838111156111435750506000910152565b634e487b7160e01b600052601160045260246000fd5b6001600160a01b038116811461123157600080fdfea264697066735822122082f30a254f4c380da28db36b15767543bcc59b4f4d1796f122d5dedc9ae581f664736f6c63430008020033",
  "linkReferences": {},
  "deployedLinkReferences": {}
}