{
  "_format": "hh-sol-artifact-1",
  "contractName": "TestERC721",
  "sourceName": "contracts/mocks/TestERC721.sol",
  "abi": [
    {
      "inputs": [],
      "stateMutability": "nonpayable",
      "type": "constructor"
    },
    {
      "anonymous": false,
      "inputs": [
        {
          "indexed": true,
          "internalType": "address",
          "name": "owner",
          "type": "address"
        },
        {
          "indexed": true,
          "internalType": "address",
          "name": "approved",
          "type": "address"
        },
        {
          "indexed": true,
          "internalType": "uint256",
          "name": "tokenId",
          "type": "uint256"
        }
      ],
      "name": "Approval",
      "type": "event"
    },
    {
      "anonymous": false,
      "inputs": [
        {
          "indexed": true,
          "internalType": "address",
          "name": "owner",
          "type": "address"
        },
        {
          "indexed": true,
          "internalType": "address",
          "name": "operator",
          "type": "address"
        },
        {
          "indexed": false,
          "internalType": "bool",
          "name": "approved",
          "type": "bool"
        }
      ],
      "name": "ApprovalForAll",
      "type": "event"
    },
    {
      "anonymous": false,
      "inputs": [
        {
          "indexed": true,
          "internalType": "address",
          "name": "previousOwner",
          "type": "address"
        },
        {
          "indexed": true,
          "internalType": "address",
          "name": "newOwner",
          "type": "address"
        }
      ],
      "name": "OwnershipTransferred",
      "type": "event"
    },
    {
      "anonymous": false,
      "inputs": [
        {
          "indexed": true,
          "internalType": "address",
          "name": "from",
          "type": "address"
        },
        {
          "indexed": true,
          "internalType": "address",
          "name": "to",
          "type": "address"
        },
        {
          "indexed": true,
          "internalType": "uint256",
          "name": "tokenId",
          "type": "uint256"
        }
      ],
      "name": "Transfer",
      "type": "event"
    },
    {
      "inputs": [
        {
          "internalType": "address",
          "name": "to",
          "type": "address"
        },
        {
          "internalType": "uint256",
          "name": "tokenId",
          "type": "uint256"
        }
      ],
      "name": "approve",
      "outputs": [],
      "stateMutability": "nonpayable",
      "type": "function"
    },
    {
      "inputs": [
        {
          "internalType": "address",
          "name": "owner",
          "type": "address"
        }
      ],
      "name": "balanceOf",
      "outputs": [
        {
          "internalType": "uint256",
          "name": "",
          "type": "uint256"
        }
      ],
      "stateMutability": "view",
      "type": "function"
    },
    {
      "inputs": [
        {
          "internalType": "bytes32",
          "name": "c__0x072c4550",
          "type": "bytes32"
        }
      ],
      "name": "c_0x072c4550",
      "outputs": [],
      "stateMutability": "pure",
      "type": "function"
    },
    {
      "inputs": [
        {
          "internalType": "uint256",
          "name": "tokenId",
          "type": "uint256"
        }
      ],
      "name": "getApproved",
      "outputs": [
        {
          "internalType": "address",
          "name": "",
          "type": "address"
        }
      ],
      "stateMutability": "view",
      "type": "function"
    },
    {
      "inputs": [
        {
          "internalType": "address",
          "name": "owner",
          "type": "address"
        },
        {
          "internalType": "address",
          "name": "operator",
          "type": "address"
        }
      ],
      "name": "isApprovedForAll",
      "outputs": [
        {
          "internalType": "bool",
          "name": "",
          "type": "bool"
        }
      ],
      "stateMutability": "view",
      "type": "function"
    },
    {
      "inputs": [
        {
          "internalType": "address",
          "name": "to",
          "type": "address"
        },
        {
          "internalType": "uint256",
          "name": "tokenId",
          "type": "uint256"
        }
      ],
      "name": "mint",
      "outputs": [],
      "stateMutability": "nonpayable",
      "type": "function"
    },
    {
      "inputs": [
        {
          "internalType": "address",
          "name": "to",
          "type": "address"
        }
      ],
      "name": "mintNext",
      "outputs": [],
      "stateMutability": "nonpayable",
      "type": "function"
    },
    {
      "inputs": [],
      "name": "name",
      "outputs": [
        {
          "internalType": "string",
          "name": "",
          "type": "string"
        }
      ],
      "stateMutability": "view",
      "type": "function"
    },
    {
      "inputs": [],
      "name": "owner",
      "outputs": [
        {
          "internalType": "address",
          "name": "",
          "type": "address"
        }
      ],
      "stateMutability": "view",
      "type": "function"
    },
    {
      "inputs": [
        {
          "internalType": "uint256",
          "name": "tokenId",
          "type": "uint256"
        }
      ],
      "name": "ownerOf",
      "outputs": [
        {
          "internalType": "address",
          "name": "",
          "type": "address"
        }
      ],
      "stateMutability": "view",
      "type": "function"
    },
    {
      "inputs": [],
      "name": "renounceOwnership",
      "outputs": [],
      "stateMutability": "nonpayable",
      "type": "function"
    },
    {
      "inputs": [
        {
          "internalType": "address",
          "name": "from",
          "type": "address"
        },
        {
          "internalType": "address",
          "name": "to",
          "type": "address"
        },
        {
          "internalType": "uint256",
          "name": "tokenId",
          "type": "uint256"
        }
      ],
      "name": "safeTransferFrom",
      "outputs": [],
      "stateMutability": "nonpayable",
      "type": "function"
    },
    {
      "inputs": [
        {
          "internalType": "address",
          "name": "from",
          "type": "address"
        },
        {
          "internalType": "address",
          "name": "to",
          "type": "address"
        },
        {
          "internalType": "uint256",
          "name": "tokenId",
          "type": "uint256"
        },
        {
          "internalType": "bytes",
          "name": "_data",
          "type": "bytes"
        }
      ],
      "name": "safeTransferFrom",
      "outputs": [],
      "stateMutability": "nonpayable",
      "type": "function"
    },
    {
      "inputs": [
        {
          "internalType": "address",
          "name": "operator",
          "type": "address"
        },
        {
          "internalType": "bool",
          "name": "approved",
          "type": "bool"
        }
      ],
      "name": "setApprovalForAll",
      "outputs": [],
      "stateMutability": "nonpayable",
      "type": "function"
    },
    {
      "inputs": [
        {
          "internalType": "bytes4",
          "name": "interfaceId",
          "type": "bytes4"
        }
      ],
      "name": "supportsInterface",
      "outputs": [
        {
          "internalType": "bool",
          "name": "",
          "type": "bool"
        }
      ],
      "stateMutability": "view",
      "type": "function"
    },
    {
      "inputs": [],
      "name": "symbol",
      "outputs": [
        {
          "internalType": "string",
          "name": "",
          "type": "string"
        }
      ],
      "stateMutability": "view",
      "type": "function"
    },
    {
      "inputs": [
        {
          "internalType": "uint256",
          "name": "index",
          "type": "uint256"
        }
      ],
      "name": "tokenByIndex",
      "outputs": [
        {
          "internalType": "uint256",
          "name": "",
          "type": "uint256"
        }
      ],
      "stateMutability": "view",
      "type": "function"
    },
    {
      "inputs": [
        {
          "internalType": "address",
          "name": "owner",
          "type": "address"
        },
        {
          "internalType": "uint256",
          "name": "index",
          "type": "uint256"
        }
      ],
      "name": "tokenOfOwnerByIndex",
      "outputs": [
        {
          "internalType": "uint256",
          "name": "",
          "type": "uint256"
        }
      ],
      "stateMutability": "view",
      "type": "function"
    },
    {
      "inputs": [
        {
          "internalType": "uint256",
          "name": "tokenId",
          "type": "uint256"
        }
      ],
      "name": "tokenURI",
      "outputs": [
        {
          "internalType": "string",
          "name": "",
          "type": "string"
        }
      ],
      "stateMutability": "view",
      "type": "function"
    },
    {
      "inputs": [],
      "name": "totalSupply",
      "outputs": [
        {
          "internalType": "uint256",
          "name": "",
          "type": "uint256"
        }
      ],
      "stateMutability": "view",
      "type": "function"
    },
    {
      "inputs": [
        {
          "internalType": "address",
          "name": "from",
          "type": "address"
        },
        {
          "internalType": "address",
          "name": "to",
          "type": "address"
        },
        {
          "internalType": "uint256",
          "name": "tokenId",
          "type": "uint256"
        }
      ],
      "name": "transferFrom",
      "outputs": [],
      "stateMutability": "nonpayable",
      "type": "function"
    },
    {
      "inputs": [
        {
          "internalType": "address",
          "name": "newOwner",
          "type": "address"
        }
      ],
      "name": "transferOwnership",
      "outputs": [],
      "stateMutability": "nonpayable",
      "type": "function"
    }
  ],
  "bytecode": "0x60806040523480156200001157600080fd5b506040518060400160405280600a81526020017f54657374455243373231000000000000000000000000000000000000000000008152506040518060400160405280600381526020017f54535400000000000000000000000000000000000000000000000000000000008152506200009e620000926200010c60201b60201c565b6200011460201b60201c565b8160019080519060200190620000b6929190620001db565b508060029080519060200190620000cf929190620001db565b505050620001067f5e3b0b7eedfc5fdfbd6baea0a1534610c72e033f4cd1c28316c9b27b6a19a58260001b620001d860201b60201c565b620002f0565b600033905090565b60008060009054906101000a900473ffffffffffffffffffffffffffffffffffffffff169050816000806101000a81548173ffffffffffffffffffffffffffffffffffffffff021916908373ffffffffffffffffffffffffffffffffffffffff1602179055508173ffffffffffffffffffffffffffffffffffffffff168173ffffffffffffffffffffffffffffffffffffffff167f8be0079c531659141344cd1fd0a4f28419497f9722a3daafe3b4186f6b6457e060405160405180910390a35050565b50565b828054620001e9906200028b565b90600052602060002090601f0160209004810192826200020d576000855562000259565b82601f106200022857805160ff191683800117855562000259565b8280016001018555821562000259579182015b82811115620002585782518255916020019190600101906200023b565b5b5090506200026891906200026c565b5090565b5b80821115620002875760008160009055506001016200026d565b5090565b60006002820490506001821680620002a457607f821691505b60208210811415620002bb57620002ba620002c1565b5b50919050565b7f4e487b7100000000000000000000000000000000000000000000000000000000600052602260045260246000fd5b61364d80620003006000396000f3fe608060405234801561001057600080fd5b50600436106101425760003560e01c80636352211e116100b8578063a22cb4651161007c578063a22cb46514610375578063a8b4e31014610391578063b88d4fde146103ad578063c87b56dd146103c9578063e985e9c5146103f9578063f2fde38b1461042957610142565b80636352211e146102cf57806370a08231146102ff578063715018a61461032f5780638da5cb5b1461033957806395d89b411461035757610142565b806318160ddd1161010a57806318160ddd146101fd57806323b872dd1461021b5780632f745c591461023757806340c10f191461026757806342842e0e146102835780634f6ccce71461029f57610142565b8063016ea35a1461014757806301ffc9a71461016357806306fdde0314610193578063081812fc146101b1578063095ea7b3146101e1575b600080fd5b610161600480360381019061015c919061243c565b610445565b005b61017d6004803603810190610178919061260c565b610547565b60405161018a9190612a58565b60405180910390f35b61019b6105dd565b6040516101a89190612a73565b60405180910390f35b6101cb60048036038101906101c6919061265e565b61066f565b6040516101d891906129f1565b60405180910390f35b6101fb60048036038101906101f691906125a7565b6106f4565b005b61020561080c565b6040516102129190612cd5565b60405180910390f35b610235600480360381019061023091906124a1565b610819565b005b610251600480360381019061024c91906125a7565b610879565b60405161025e9190612cd5565b60405180910390f35b610281600480360381019061027c91906125a7565b61091e565b005b61029d600480360381019061029891906124a1565b6109b0565b005b6102b960048036038101906102b4919061265e565b6109d0565b6040516102c69190612cd5565b60405180910390f35b6102e960048036038101906102e4919061265e565b610a67565b6040516102f691906129f1565b60405180910390f35b6103196004803603810190610314919061243c565b610b19565b6040516103269190612cd5565b60405180910390f35b610337610bd1565b005b610341610c59565b60405161034e91906129f1565b60405180910390f35b61035f610c82565b60405161036c9190612a73565b60405180910390f35b61038f600480360381019061038a919061256b565b610d14565b005b6103ab60048036038101906103a691906125e3565b610d2a565b005b6103c760048036038101906103c291906124f0565b610d2d565b005b6103e360048036038101906103de919061265e565b610d8f565b6040516103f09190612a73565b60405180910390f35b610413600480360381019061040e9190612465565b610e36565b6040516104209190612a58565b60405180910390f35b610443600480360381019061043e919061243c565b610eca565b005b6104717f6262b3587bf38b77617f7515373bdab56bf59908f5aba107d4b10dfb45fd347a60001b610d2a565b61049d7f2660b26207a9a5fcdff7d39b9a204138973a3bee03b6d1151142c86b1e975a6c60001b610d2a565b6104c97f1601d70041157991c144dd77c1e428da31b6f23dc14fe513684523945d2abbf260001b610d2a565b60006104d361080c565b90506105017f5462fff10bc47cfe15df00eb1a600ae0776f3589f2c400f49187c42a39b5360b60001b610d2a565b61052d7f5806654fbb51f79c0330e5f03d03183c837fb7743b8927352d18fddba7c7668460001b610d2a565b6105438260018361053e9190612d89565b61091e565b5050565b60006105757f633384800c9f3daca7e14e3f2fb04846e798c65b819fb7f7b1bba486c27b486860001b610d2a565b6105a17f45f1ba0d611ae3f904ff46d4add569f3d54a1b83ac1956e1c56092e3eb25893360001b610d2a565b6105cd7f5669c0855b3183b62602bd6a4c40f4e49f7b91c30432724d9faba69901e5fa8a60001b610d2a565b6105d682610fc2565b9050919050565b6060600180546105ec90612f04565b80601f016020809104026020016040519081016040528092919081815260200182805461061890612f04565b80156106655780601f1061063a57610100808354040283529160200191610665565b820191906000526020600020905b81548152906001019060200180831161064857829003601f168201915b5050505050905090565b600061067a8261103c565b6106b9576040517f08c379a00000000000000000000000000000000000000000000000000000000081526004016106b090612bf5565b60405180910390fd5b6005600083815260200190815260200160002060009054906101000a900473ffffffffffffffffffffffffffffffffffffffff169050919050565b60006106ff82610a67565b90508073ffffffffffffffffffffffffffffffffffffffff168373ffffffffffffffffffffffffffffffffffffffff161415610770576040517f08c379a000000000000000000000000000000000000000000000000000000000815260040161076790612c75565b60405180910390fd5b8073ffffffffffffffffffffffffffffffffffffffff1661078f6110a8565b73ffffffffffffffffffffffffffffffffffffffff1614806107be57506107bd816107b86110a8565b610e36565b5b6107fd576040517f08c379a00000000000000000000000000000000000000000000000000000000081526004016107f490612b75565b60405180910390fd5b61080783836110b0565b505050565b6000600980549050905090565b61082a6108246110a8565b82611169565b610869576040517f08c379a000000000000000000000000000000000000000000000000000000000815260040161086090612c95565b60405180910390fd5b610874838383611247565b505050565b600061088483610b19565b82106108c5576040517f08c379a00000000000000000000000000000000000000000000000000000000081526004016108bc90612a95565b60405180910390fd5b600760008473ffffffffffffffffffffffffffffffffffffffff1673ffffffffffffffffffffffffffffffffffffffff168152602001908152602001600020600083815260200190815260200160002054905092915050565b61094a7f31c3d021eb4944099b6e24baf0a05b34792513567a90285db8d481a4e2c079de60001b610d2a565b6109767fd555fdf1abdb28fa436312311535724e95b026c40ac2cce1a685da7798e927c460001b610d2a565b6109a27f1bf34d2bcbe906b6a10fc24d2e300fc2d0597b039f2362ba374a53fc424d46f960001b610d2a565b6109ac82826114a3565b5050565b6109cb83838360405180602001604052806000815250610d2d565b505050565b60006109da61080c565b8210610a1b576040517f08c379a0000000000000000000000000000000000000000000000000000000008152600401610a1290612cb5565b60405180910390fd5b60098281548110610a55577f4e487b7100000000000000000000000000000000000000000000000000000000600052603260045260246000fd5b90600052602060002001549050919050565b6000806003600084815260200190815260200160002060009054906101000a900473ffffffffffffffffffffffffffffffffffffffff169050600073ffffffffffffffffffffffffffffffffffffffff168173ffffffffffffffffffffffffffffffffffffffff161415610b10576040517f08c379a0000000000000000000000000000000000000000000000000000000008152600401610b0790612bb5565b60405180910390fd5b80915050919050565b60008073ffffffffffffffffffffffffffffffffffffffff168273ffffffffffffffffffffffffffffffffffffffff161415610b8a576040517f08c379a0000000000000000000000000000000000000000000000000000000008152600401610b8190612b95565b60405180910390fd5b600460008373ffffffffffffffffffffffffffffffffffffffff1673ffffffffffffffffffffffffffffffffffffffff168152602001908152602001600020549050919050565b610bd96110a8565b73ffffffffffffffffffffffffffffffffffffffff16610bf7610c59565b73ffffffffffffffffffffffffffffffffffffffff1614610c4d576040517f08c379a0000000000000000000000000000000000000000000000000000000008152600401610c4490612c15565b60405180910390fd5b610c5760006114c1565b565b60008060009054906101000a900473ffffffffffffffffffffffffffffffffffffffff16905090565b606060028054610c9190612f04565b80601f0160208091040260200160405190810160405280929190818152602001828054610cbd90612f04565b8015610d0a5780601f10610cdf57610100808354040283529160200191610d0a565b820191906000526020600020905b815481529060010190602001808311610ced57829003601f168201915b5050505050905090565b610d26610d1f6110a8565b8383611585565b5050565b50565b610d3e610d386110a8565b83611169565b610d7d576040517f08c379a0000000000000000000000000000000000000000000000000000000008152600401610d7490612c95565b60405180910390fd5b610d89848484846116f2565b50505050565b6060610d9a8261103c565b610dd9576040517f08c379a0000000000000000000000000000000000000000000000000000000008152600401610dd090612c55565b60405180910390fd5b6000610de361174e565b90506000815111610e035760405180602001604052806000815250610e2e565b80610e0d84611765565b604051602001610e1e9291906129cd565b6040516020818303038152906040525b915050919050565b6000600660008473ffffffffffffffffffffffffffffffffffffffff1673ffffffffffffffffffffffffffffffffffffffff16815260200190815260200160002060008373ffffffffffffffffffffffffffffffffffffffff1673ffffffffffffffffffffffffffffffffffffffff16815260200190815260200160002060009054906101000a900460ff16905092915050565b610ed26110a8565b73ffffffffffffffffffffffffffffffffffffffff16610ef0610c59565b73ffffffffffffffffffffffffffffffffffffffff1614610f46576040517f08c379a0000000000000000000000000000000000000000000000000000000008152600401610f3d90612c15565b60405180910390fd5b600073ffffffffffffffffffffffffffffffffffffffff168173ffffffffffffffffffffffffffffffffffffffff161415610fb6576040517f08c379a0000000000000000000000000000000000000000000000000000000008152600401610fad90612ad5565b60405180910390fd5b610fbf816114c1565b50565b60007f780e9d63000000000000000000000000000000000000000000000000000000007bffffffffffffffffffffffffffffffffffffffffffffffffffffffff1916827bffffffffffffffffffffffffffffffffffffffffffffffffffffffff19161480611035575061103482611912565b5b9050919050565b60008073ffffffffffffffffffffffffffffffffffffffff166003600084815260200190815260200160002060009054906101000a900473ffffffffffffffffffffffffffffffffffffffff1673ffffffffffffffffffffffffffffffffffffffff1614159050919050565b600033905090565b816005600083815260200190815260200160002060006101000a81548173ffffffffffffffffffffffffffffffffffffffff021916908373ffffffffffffffffffffffffffffffffffffffff160217905550808273ffffffffffffffffffffffffffffffffffffffff1661112383610a67565b73ffffffffffffffffffffffffffffffffffffffff167f8c5be1e5ebec7d5bd14f71427d1e84f3dd0314c0f7b2291e5b200ac8c7c3b92560405160405180910390a45050565b60006111748261103c565b6111b3576040517f08c379a00000000000000000000000000000000000000000000000000000000081526004016111aa90612b55565b60405180910390fd5b60006111be83610a67565b90508073ffffffffffffffffffffffffffffffffffffffff168473ffffffffffffffffffffffffffffffffffffffff16148061122d57508373ffffffffffffffffffffffffffffffffffffffff166112158461066f565b73ffffffffffffffffffffffffffffffffffffffff16145b8061123e575061123d8185610e36565b5b91505092915050565b8273ffffffffffffffffffffffffffffffffffffffff1661126782610a67565b73ffffffffffffffffffffffffffffffffffffffff16146112bd576040517f08c379a00000000000000000000000000000000000000000000000000000000081526004016112b490612c35565b60405180910390fd5b600073ffffffffffffffffffffffffffffffffffffffff168273ffffffffffffffffffffffffffffffffffffffff16141561132d576040517f08c379a000000000000000000000000000000000000000000000000000000000815260040161132490612b15565b60405180910390fd5b6113388383836119f4565b6113436000826110b0565b6001600460008573ffffffffffffffffffffffffffffffffffffffff1673ffffffffffffffffffffffffffffffffffffffff16815260200190815260200160002060008282546113939190612e10565b925050819055506001600460008473ffffffffffffffffffffffffffffffffffffffff1673ffffffffffffffffffffffffffffffffffffffff16815260200190815260200160002060008282546113ea9190612d89565b92505081905550816003600083815260200190815260200160002060006101000a81548173ffffffffffffffffffffffffffffffffffffffff021916908373ffffffffffffffffffffffffffffffffffffffff160217905550808273ffffffffffffffffffffffffffffffffffffffff168473ffffffffffffffffffffffffffffffffffffffff167fddf252ad1be2c89b69c2b068fc378daa952ba7f163c4a11628f55a4df523b3ef60405160405180910390a4505050565b6114bd828260405180602001604052806000815250611a88565b5050565b60008060009054906101000a900473ffffffffffffffffffffffffffffffffffffffff169050816000806101000a81548173ffffffffffffffffffffffffffffffffffffffff021916908373ffffffffffffffffffffffffffffffffffffffff1602179055508173ffffffffffffffffffffffffffffffffffffffff168173ffffffffffffffffffffffffffffffffffffffff167f8be0079c531659141344cd1fd0a4f28419497f9722a3daafe3b4186f6b6457e060405160405180910390a35050565b8173ffffffffffffffffffffffffffffffffffffffff168373ffffffffffffffffffffffffffffffffffffffff1614156115f4576040517f08c379a00000000000000000000000000000000000000000000000000000000081526004016115eb90612b35565b60405180910390fd5b80600660008573ffffffffffffffffffffffffffffffffffffffff1673ffffffffffffffffffffffffffffffffffffffff16815260200190815260200160002060008473ffffffffffffffffffffffffffffffffffffffff1673ffffffffffffffffffffffffffffffffffffffff16815260200190815260200160002060006101000a81548160ff0219169083151502179055508173ffffffffffffffffffffffffffffffffffffffff168373ffffffffffffffffffffffffffffffffffffffff167f17307eab39ab6107e8899845ad3d59bd9653f200f220920489ca2b5937696c31836040516116e59190612a58565b60405180910390a3505050565b6116fd848484611247565b61170984848484611ae3565b611748576040517f08c379a000000000000000000000000000000000000000000000000000000000815260040161173f90612ab5565b60405180910390fd5b50505050565b606060405180602001604052806000815250905090565b606060008214156117ad576040518060400160405280600181526020017f3000000000000000000000000000000000000000000000000000000000000000815250905061190d565b600082905060005b600082146117df5780806117c890612f67565b915050600a826117d89190612ddf565b91506117b5565b60008167ffffffffffffffff811115611821577f4e487b7100000000000000000000000000000000000000000000000000000000600052604160045260246000fd5b6040519080825280601f01601f1916602001820160405280156118535781602001600182028036833780820191505090505b5090505b600085146119065760018261186c9190612e10565b9150600a8561187b9190612fb0565b60306118879190612d89565b60f81b8183815181106118c3577f4e487b7100000000000000000000000000000000000000000000000000000000600052603260045260246000fd5b60200101907effffffffffffffffffffffffffffffffffffffffffffffffffffffffffffff1916908160001a905350600a856118ff9190612ddf565b9450611857565b8093505050505b919050565b60007f80ac58cd000000000000000000000000000000000000000000000000000000007bffffffffffffffffffffffffffffffffffffffffffffffffffffffff1916827bffffffffffffffffffffffffffffffffffffffffffffffffffffffff191614806119dd57507f5b5e139f000000000000000000000000000000000000000000000000000000007bffffffffffffffffffffffffffffffffffffffffffffffffffffffff1916827bffffffffffffffffffffffffffffffffffffffffffffffffffffffff1916145b806119ed57506119ec82611c7a565b5b9050919050565b611a207fc19faf82cfc45276c16325d754c0540fd29cf1620774449af73c8c6b74bda18e60001b610d2a565b611a4c7f6af6a1c1dfbc2cccf1c1f750e68a24df2afb3f2d51959e0760c7684dbd0e174660001b610d2a565b611a787f05214848ea40449cc70779ec76aa7bfbf4409f22b38909441a623f420e0dc4ce60001b610d2a565b611a83838383611ce4565b505050565b611a928383611df8565b611a9f6000848484611ae3565b611ade576040517f08c379a0000000000000000000000000000000000000000000000000000000008152600401611ad590612ab5565b60405180910390fd5b505050565b6000611b048473ffffffffffffffffffffffffffffffffffffffff16611fc6565b15611c6d578373ffffffffffffffffffffffffffffffffffffffff1663150b7a02611b2d6110a8565b8786866040518563ffffffff1660e01b8152600401611b4f9493929190612a0c565b602060405180830381600087803b158015611b6957600080fd5b505af1925050508015611b9a57506040513d601f19601f82011682018060405250810190611b979190612635565b60015b611c1d573d8060008114611bca576040519150601f19603f3d011682016040523d82523d6000602084013e611bcf565b606091505b50600081511415611c15576040517f08c379a0000000000000000000000000000000000000000000000000000000008152600401611c0c90612ab5565b60405180910390fd5b805181602001fd5b63150b7a0260e01b7bffffffffffffffffffffffffffffffffffffffffffffffffffffffff1916817bffffffffffffffffffffffffffffffffffffffffffffffffffffffff191614915050611c72565b600190505b949350505050565b60007f01ffc9a7000000000000000000000000000000000000000000000000000000007bffffffffffffffffffffffffffffffffffffffffffffffffffffffff1916827bffffffffffffffffffffffffffffffffffffffffffffffffffffffff1916149050919050565b611cef838383611fd9565b600073ffffffffffffffffffffffffffffffffffffffff168373ffffffffffffffffffffffffffffffffffffffff161415611d3257611d2d81611fde565b611d71565b8173ffffffffffffffffffffffffffffffffffffffff168373ffffffffffffffffffffffffffffffffffffffff1614611d7057611d6f8382612027565b5b5b600073ffffffffffffffffffffffffffffffffffffffff168273ffffffffffffffffffffffffffffffffffffffff161415611db457611daf81612194565b611df3565b8273ffffffffffffffffffffffffffffffffffffffff168273ffffffffffffffffffffffffffffffffffffffff1614611df257611df182826122d7565b5b5b505050565b600073ffffffffffffffffffffffffffffffffffffffff168273ffffffffffffffffffffffffffffffffffffffff161415611e68576040517f08c379a0000000000000000000000000000000000000000000000000000000008152600401611e5f90612bd5565b60405180910390fd5b611e718161103c565b15611eb1576040517f08c379a0000000000000000000000000000000000000000000000000000000008152600401611ea890612af5565b60405180910390fd5b611ebd600083836119f4565b6001600460008473ffffffffffffffffffffffffffffffffffffffff1673ffffffffffffffffffffffffffffffffffffffff1681526020019081526020016000206000828254611f0d9190612d89565b92505081905550816003600083815260200190815260200160002060006101000a81548173ffffffffffffffffffffffffffffffffffffffff021916908373ffffffffffffffffffffffffffffffffffffffff160217905550808273ffffffffffffffffffffffffffffffffffffffff16600073ffffffffffffffffffffffffffffffffffffffff167fddf252ad1be2c89b69c2b068fc378daa952ba7f163c4a11628f55a4df523b3ef60405160405180910390a45050565b600080823b905060008111915050919050565b505050565b600980549050600a600083815260200190815260200160002081905550600981908060018154018082558091505060019003906000526020600020016000909190919091505550565b6000600161203484610b19565b61203e9190612e10565b9050600060086000848152602001908152602001600020549050818114612123576000600760008673ffffffffffffffffffffffffffffffffffffffff1673ffffffffffffffffffffffffffffffffffffffff168152602001908152602001600020600084815260200190815260200160002054905080600760008773ffffffffffffffffffffffffffffffffffffffff1673ffffffffffffffffffffffffffffffffffffffff168152602001908152602001600020600084815260200190815260200160002081905550816008600083815260200190815260200160002081905550505b6008600084815260200190815260200160002060009055600760008573ffffffffffffffffffffffffffffffffffffffff1673ffffffffffffffffffffffffffffffffffffffff16815260200190815260200160002060008381526020019081526020016000206000905550505050565b600060016009805490506121a89190612e10565b90506000600a60008481526020019081526020016000205490506000600983815481106121fe577f4e487b7100000000000000000000000000000000000000000000000000000000600052603260045260246000fd5b906000526020600020015490508060098381548110612246577f4e487b7100000000000000000000000000000000000000000000000000000000600052603260045260246000fd5b906000526020600020018190555081600a600083815260200190815260200160002081905550600a60008581526020019081526020016000206000905560098054806122bb577f4e487b7100000000000000000000000000000000000000000000000000000000600052603160045260246000fd5b6001900381819060005260206000200160009055905550505050565b60006122e283610b19565b905081600760008573ffffffffffffffffffffffffffffffffffffffff1673ffffffffffffffffffffffffffffffffffffffff168152602001908152602001600020600083815260200190815260200160002081905550806008600084815260200190815260200160002081905550505050565b600061236961236484612d15565b612cf0565b90508281526020810184848401111561238157600080fd5b61238c848285612ec2565b509392505050565b6000813590506123a3816135a4565b92915050565b6000813590506123b8816135bb565b92915050565b6000813590506123cd816135d2565b92915050565b6000813590506123e2816135e9565b92915050565b6000815190506123f7816135e9565b92915050565b600082601f83011261240e57600080fd5b813561241e848260208601612356565b91505092915050565b60008135905061243681613600565b92915050565b60006020828403121561244e57600080fd5b600061245c84828501612394565b91505092915050565b6000806040838503121561247857600080fd5b600061248685828601612394565b925050602061249785828601612394565b9150509250929050565b6000806000606084860312156124b657600080fd5b60006124c486828701612394565b93505060206124d586828701612394565b92505060406124e686828701612427565b9150509250925092565b6000806000806080858703121561250657600080fd5b600061251487828801612394565b945050602061252587828801612394565b935050604061253687828801612427565b925050606085013567ffffffffffffffff81111561255357600080fd5b61255f878288016123fd565b91505092959194509250565b6000806040838503121561257e57600080fd5b600061258c85828601612394565b925050602061259d858286016123a9565b9150509250929050565b600080604083850312156125ba57600080fd5b60006125c885828601612394565b92505060206125d985828601612427565b9150509250929050565b6000602082840312156125f557600080fd5b6000612603848285016123be565b91505092915050565b60006020828403121561261e57600080fd5b600061262c848285016123d3565b91505092915050565b60006020828403121561264757600080fd5b6000612655848285016123e8565b91505092915050565b60006020828403121561267057600080fd5b600061267e84828501612427565b91505092915050565b61269081612e44565b82525050565b61269f81612e56565b82525050565b60006126b082612d46565b6126ba8185612d5c565b93506126ca818560208601612ed1565b6126d38161309d565b840191505092915050565b60006126e982612d51565b6126f38185612d6d565b9350612703818560208601612ed1565b61270c8161309d565b840191505092915050565b600061272282612d51565b61272c8185612d7e565b935061273c818560208601612ed1565b80840191505092915050565b6000612755602b83612d6d565b9150612760826130ae565b604082019050919050565b6000612778603283612d6d565b9150612783826130fd565b604082019050919050565b600061279b602683612d6d565b91506127a68261314c565b604082019050919050565b60006127be601c83612d6d565b91506127c98261319b565b602082019050919050565b60006127e1602483612d6d565b91506127ec826131c4565b604082019050919050565b6000612804601983612d6d565b915061280f82613213565b602082019050919050565b6000612827602c83612d6d565b91506128328261323c565b604082019050919050565b600061284a603883612d6d565b91506128558261328b565b604082019050919050565b600061286d602a83612d6d565b9150612878826132da565b604082019050919050565b6000612890602983612d6d565b915061289b82613329565b604082019050919050565b60006128b3602083612d6d565b91506128be82613378565b602082019050919050565b60006128d6602c83612d6d565b91506128e1826133a1565b604082019050919050565b60006128f9602083612d6d565b9150612904826133f0565b602082019050919050565b600061291c602983612d6d565b915061292782613419565b604082019050919050565b600061293f602f83612d6d565b915061294a82613468565b604082019050919050565b6000612962602183612d6d565b915061296d826134b7565b604082019050919050565b6000612985603183612d6d565b915061299082613506565b604082019050919050565b60006129a8602c83612d6d565b91506129b382613555565b604082019050919050565b6129c781612eb8565b82525050565b60006129d98285612717565b91506129e58284612717565b91508190509392505050565b6000602082019050612a066000830184612687565b92915050565b6000608082019050612a216000830187612687565b612a2e6020830186612687565b612a3b60408301856129be565b8181036060830152612a4d81846126a5565b905095945050505050565b6000602082019050612a6d6000830184612696565b92915050565b60006020820190508181036000830152612a8d81846126de565b905092915050565b60006020820190508181036000830152612aae81612748565b9050919050565b60006020820190508181036000830152612ace8161276b565b9050919050565b60006020820190508181036000830152612aee8161278e565b9050919050565b60006020820190508181036000830152612b0e816127b1565b9050919050565b60006020820190508181036000830152612b2e816127d4565b9050919050565b60006020820190508181036000830152612b4e816127f7565b9050919050565b60006020820190508181036000830152612b6e8161281a565b9050919050565b60006020820190508181036000830152612b8e8161283d565b9050919050565b60006020820190508181036000830152612bae81612860565b9050919050565b60006020820190508181036000830152612bce81612883565b9050919050565b60006020820190508181036000830152612bee816128a6565b9050919050565b60006020820190508181036000830152612c0e816128c9565b9050919050565b60006020820190508181036000830152612c2e816128ec565b9050919050565b60006020820190508181036000830152612c4e8161290f565b9050919050565b60006020820190508181036000830152612c6e81612932565b9050919050565b60006020820190508181036000830152612c8e81612955565b9050919050565b60006020820190508181036000830152612cae81612978565b9050919050565b60006020820190508181036000830152612cce8161299b565b9050919050565b6000602082019050612cea60008301846129be565b92915050565b6000612cfa612d0b565b9050612d068282612f36565b919050565b6000604051905090565b600067ffffffffffffffff821115612d3057612d2f61306e565b5b612d398261309d565b9050602081019050919050565b600081519050919050565b600081519050919050565b600082825260208201905092915050565b600082825260208201905092915050565b600081905092915050565b6000612d9482612eb8565b9150612d9f83612eb8565b9250827fffffffffffffffffffffffffffffffffffffffffffffffffffffffffffffffff03821115612dd457612dd3612fe1565b5b828201905092915050565b6000612dea82612eb8565b9150612df583612eb8565b925082612e0557612e04613010565b5b828204905092915050565b6000612e1b82612eb8565b9150612e2683612eb8565b925082821015612e3957612e38612fe1565b5b828203905092915050565b6000612e4f82612e98565b9050919050565b60008115159050919050565b6000819050919050565b60007fffffffff0000000000000000000000000000000000000000000000000000000082169050919050565b600073ffffffffffffffffffffffffffffffffffffffff82169050919050565b6000819050919050565b82818337600083830152505050565b60005b83811015612eef578082015181840152602081019050612ed4565b83811115612efe576000848401525b50505050565b60006002820490506001821680612f1c57607f821691505b60208210811415612f3057612f2f61303f565b5b50919050565b612f3f8261309d565b810181811067ffffffffffffffff82111715612f5e57612f5d61306e565b5b80604052505050565b6000612f7282612eb8565b91507fffffffffffffffffffffffffffffffffffffffffffffffffffffffffffffffff821415612fa557612fa4612fe1565b5b600182019050919050565b6000612fbb82612eb8565b9150612fc683612eb8565b925082612fd657612fd5613010565b5b828206905092915050565b7f4e487b7100000000000000000000000000000000000000000000000000000000600052601160045260246000fd5b7f4e487b7100000000000000000000000000000000000000000000000000000000600052601260045260246000fd5b7f4e487b7100000000000000000000000000000000000000000000000000000000600052602260045260246000fd5b7f4e487b7100000000000000000000000000000000000000000000000000000000600052604160045260246000fd5b6000601f19601f8301169050919050565b7f455243373231456e756d657261626c653a206f776e657220696e646578206f7560008201527f74206f6620626f756e6473000000000000000000000000000000000000000000602082015250565b7f4552433732313a207472616e7366657220746f206e6f6e20455243373231526560008201527f63656976657220696d706c656d656e7465720000000000000000000000000000602082015250565b7f4f776e61626c653a206e6577206f776e657220697320746865207a65726f206160008201527f6464726573730000000000000000000000000000000000000000000000000000602082015250565b7f4552433732313a20746f6b656e20616c7265616479206d696e74656400000000600082015250565b7f4552433732313a207472616e7366657220746f20746865207a65726f2061646460008201527f7265737300000000000000000000000000000000000000000000000000000000602082015250565b7f4552433732313a20617070726f766520746f2063616c6c657200000000000000600082015250565b7f4552433732313a206f70657261746f7220717565727920666f72206e6f6e657860008201527f697374656e7420746f6b656e0000000000000000000000000000000000000000602082015250565b7f4552433732313a20617070726f76652063616c6c6572206973206e6f74206f7760008201527f6e6572206e6f7220617070726f76656420666f7220616c6c0000000000000000602082015250565b7f4552433732313a2062616c616e636520717565727920666f7220746865207a6560008201527f726f206164647265737300000000000000000000000000000000000000000000602082015250565b7f4552433732313a206f776e657220717565727920666f72206e6f6e657869737460008201527f656e7420746f6b656e0000000000000000000000000000000000000000000000602082015250565b7f4552433732313a206d696e7420746f20746865207a65726f2061646472657373600082015250565b7f4552433732313a20617070726f76656420717565727920666f72206e6f6e657860008201527f697374656e7420746f6b656e0000000000000000000000000000000000000000602082015250565b7f4f776e61626c653a2063616c6c6572206973206e6f7420746865206f776e6572600082015250565b7f4552433732313a207472616e73666572206f6620746f6b656e2074686174206960008201527f73206e6f74206f776e0000000000000000000000000000000000000000000000602082015250565b7f4552433732314d657461646174613a2055524920717565727920666f72206e6f60008201527f6e6578697374656e7420746f6b656e0000000000000000000000000000000000602082015250565b7f4552433732313a20617070726f76616c20746f2063757272656e74206f776e6560008201527f7200000000000000000000000000000000000000000000000000000000000000602082015250565b7f4552433732313a207472616e736665722063616c6c6572206973206e6f74206f60008201527f776e6572206e6f7220617070726f766564000000000000000000000000000000602082015250565b7f455243373231456e756d657261626c653a20676c6f62616c20696e646578206f60008201527f7574206f6620626f756e64730000000000000000000000000000000000000000602082015250565b6135ad81612e44565b81146135b857600080fd5b50565b6135c481612e56565b81146135cf57600080fd5b50565b6135db81612e62565b81146135e657600080fd5b50565b6135f281612e6c565b81146135fd57600080fd5b50565b61360981612eb8565b811461361457600080fd5b5056fea2646970667358221220c7ec9613e5b88cebe33f3f4169d0c4b175a628e0ab8230fcc4a9e3eb4a6bb7c564736f6c63430008020033",
  "linkReferences": {},
  "deployedLinkReferences": {}
}