{
  "_format": "hh-sol-artifact-1",
  "contractName": "TestERC721",
  "sourceName": "contracts/mocks/TestERC721.sol",
  "abi": [
    {
      "inputs": [],
      "stateMutability": "nonpayable",
      "type": "constructor"
    },
    {
      "anonymous": false,
      "inputs": [
        {
          "indexed": true,
          "internalType": "address",
          "name": "owner",
          "type": "address"
        },
        {
          "indexed": true,
          "internalType": "address",
          "name": "approved",
          "type": "address"
        },
        {
          "indexed": true,
          "internalType": "uint256",
          "name": "tokenId",
          "type": "uint256"
        }
      ],
      "name": "Approval",
      "type": "event"
    },
    {
      "anonymous": false,
      "inputs": [
        {
          "indexed": true,
          "internalType": "address",
          "name": "owner",
          "type": "address"
        },
        {
          "indexed": true,
          "internalType": "address",
          "name": "operator",
          "type": "address"
        },
        {
          "indexed": false,
          "internalType": "bool",
          "name": "approved",
          "type": "bool"
        }
      ],
      "name": "ApprovalForAll",
      "type": "event"
    },
    {
      "anonymous": false,
      "inputs": [
        {
          "indexed": true,
          "internalType": "address",
          "name": "previousOwner",
          "type": "address"
        },
        {
          "indexed": true,
          "internalType": "address",
          "name": "newOwner",
          "type": "address"
        }
      ],
      "name": "OwnershipTransferred",
      "type": "event"
    },
    {
      "anonymous": false,
      "inputs": [
        {
          "indexed": true,
          "internalType": "address",
          "name": "from",
          "type": "address"
        },
        {
          "indexed": true,
          "internalType": "address",
          "name": "to",
          "type": "address"
        },
        {
          "indexed": true,
          "internalType": "uint256",
          "name": "tokenId",
          "type": "uint256"
        }
      ],
      "name": "Transfer",
      "type": "event"
    },
    {
      "inputs": [
        {
          "internalType": "address",
          "name": "to",
          "type": "address"
        },
        {
          "internalType": "uint256",
          "name": "tokenId",
          "type": "uint256"
        }
      ],
      "name": "approve",
      "outputs": [],
      "stateMutability": "nonpayable",
      "type": "function"
    },
    {
      "inputs": [
        {
          "internalType": "address",
          "name": "owner",
          "type": "address"
        }
      ],
      "name": "balanceOf",
      "outputs": [
        {
          "internalType": "uint256",
          "name": "",
          "type": "uint256"
        }
      ],
      "stateMutability": "view",
      "type": "function"
    },
    {
      "inputs": [
        {
          "internalType": "uint256",
          "name": "tokenId",
          "type": "uint256"
        }
      ],
      "name": "getApproved",
      "outputs": [
        {
          "internalType": "address",
          "name": "",
          "type": "address"
        }
      ],
      "stateMutability": "view",
      "type": "function"
    },
    {
      "inputs": [
        {
          "internalType": "address",
          "name": "owner",
          "type": "address"
        },
        {
          "internalType": "address",
          "name": "operator",
          "type": "address"
        }
      ],
      "name": "isApprovedForAll",
      "outputs": [
        {
          "internalType": "bool",
          "name": "",
          "type": "bool"
        }
      ],
      "stateMutability": "view",
      "type": "function"
    },
    {
      "inputs": [
        {
          "internalType": "address",
          "name": "to",
          "type": "address"
        },
        {
          "internalType": "uint256",
          "name": "tokenId",
          "type": "uint256"
        }
      ],
      "name": "mint",
      "outputs": [],
      "stateMutability": "nonpayable",
      "type": "function"
    },
    {
      "inputs": [
        {
          "internalType": "address",
          "name": "to",
          "type": "address"
        }
      ],
      "name": "mintNext",
      "outputs": [],
      "stateMutability": "nonpayable",
      "type": "function"
    },
    {
      "inputs": [],
      "name": "name",
      "outputs": [
        {
          "internalType": "string",
          "name": "",
          "type": "string"
        }
      ],
      "stateMutability": "view",
      "type": "function"
    },
    {
      "inputs": [],
      "name": "owner",
      "outputs": [
        {
          "internalType": "address",
          "name": "",
          "type": "address"
        }
      ],
      "stateMutability": "view",
      "type": "function"
    },
    {
      "inputs": [
        {
          "internalType": "uint256",
          "name": "tokenId",
          "type": "uint256"
        }
      ],
      "name": "ownerOf",
      "outputs": [
        {
          "internalType": "address",
          "name": "",
          "type": "address"
        }
      ],
      "stateMutability": "view",
      "type": "function"
    },
    {
      "inputs": [],
      "name": "renounceOwnership",
      "outputs": [],
      "stateMutability": "nonpayable",
      "type": "function"
    },
    {
      "inputs": [
        {
          "internalType": "address",
          "name": "from",
          "type": "address"
        },
        {
          "internalType": "address",
          "name": "to",
          "type": "address"
        },
        {
          "internalType": "uint256",
          "name": "tokenId",
          "type": "uint256"
        }
      ],
      "name": "safeTransferFrom",
      "outputs": [],
      "stateMutability": "nonpayable",
      "type": "function"
    },
    {
      "inputs": [
        {
          "internalType": "address",
          "name": "from",
          "type": "address"
        },
        {
          "internalType": "address",
          "name": "to",
          "type": "address"
        },
        {
          "internalType": "uint256",
          "name": "tokenId",
          "type": "uint256"
        },
        {
          "internalType": "bytes",
          "name": "_data",
          "type": "bytes"
        }
      ],
      "name": "safeTransferFrom",
      "outputs": [],
      "stateMutability": "nonpayable",
      "type": "function"
    },
    {
      "inputs": [
        {
          "internalType": "address",
          "name": "operator",
          "type": "address"
        },
        {
          "internalType": "bool",
          "name": "approved",
          "type": "bool"
        }
      ],
      "name": "setApprovalForAll",
      "outputs": [],
      "stateMutability": "nonpayable",
      "type": "function"
    },
    {
      "inputs": [
        {
          "internalType": "bytes4",
          "name": "interfaceId",
          "type": "bytes4"
        }
      ],
      "name": "supportsInterface",
      "outputs": [
        {
          "internalType": "bool",
          "name": "",
          "type": "bool"
        }
      ],
      "stateMutability": "view",
      "type": "function"
    },
    {
      "inputs": [],
      "name": "symbol",
      "outputs": [
        {
          "internalType": "string",
          "name": "",
          "type": "string"
        }
      ],
      "stateMutability": "view",
      "type": "function"
    },
    {
      "inputs": [
        {
          "internalType": "uint256",
          "name": "index",
          "type": "uint256"
        }
      ],
      "name": "tokenByIndex",
      "outputs": [
        {
          "internalType": "uint256",
          "name": "",
          "type": "uint256"
        }
      ],
      "stateMutability": "view",
      "type": "function"
    },
    {
      "inputs": [
        {
          "internalType": "address",
          "name": "owner",
          "type": "address"
        },
        {
          "internalType": "uint256",
          "name": "index",
          "type": "uint256"
        }
      ],
      "name": "tokenOfOwnerByIndex",
      "outputs": [
        {
          "internalType": "uint256",
          "name": "",
          "type": "uint256"
        }
      ],
      "stateMutability": "view",
      "type": "function"
    },
    {
      "inputs": [
        {
          "internalType": "uint256",
          "name": "tokenId",
          "type": "uint256"
        }
      ],
      "name": "tokenURI",
      "outputs": [
        {
          "internalType": "string",
          "name": "",
          "type": "string"
        }
      ],
      "stateMutability": "view",
      "type": "function"
    },
    {
      "inputs": [],
      "name": "totalSupply",
      "outputs": [
        {
          "internalType": "uint256",
          "name": "",
          "type": "uint256"
        }
      ],
      "stateMutability": "view",
      "type": "function"
    },
    {
      "inputs": [
        {
          "internalType": "address",
          "name": "from",
          "type": "address"
        },
        {
          "internalType": "address",
          "name": "to",
          "type": "address"
        },
        {
          "internalType": "uint256",
          "name": "tokenId",
          "type": "uint256"
        }
      ],
      "name": "transferFrom",
      "outputs": [],
      "stateMutability": "nonpayable",
      "type": "function"
    },
    {
      "inputs": [
        {
          "internalType": "address",
          "name": "newOwner",
          "type": "address"
        }
      ],
      "name": "transferOwnership",
      "outputs": [],
      "stateMutability": "nonpayable",
      "type": "function"
    }
  ],
  "bytecode": "0x60806040523480156200001157600080fd5b506040518060400160405280600a8152602001695465737445524337323160b01b815250604051806040016040528060038152602001621514d560ea1b8152506200006b620000656200009f60201b60201c565b620000a3565b815162000080906001906020850190620000f3565b50805162000096906002906020840190620000f3565b505050620001d6565b3390565b600080546001600160a01b038381166001600160a01b0319831681178455604051919092169283917f8be0079c531659141344cd1fd0a4f28419497f9722a3daafe3b4186f6b6457e09190a35050565b828054620001019062000199565b90600052602060002090601f01602090048101928262000125576000855562000170565b82601f106200014057805160ff191683800117855562000170565b8280016001018555821562000170579182015b828111156200017057825182559160200191906001019062000153565b506200017e92915062000182565b5090565b5b808211156200017e576000815560010162000183565b600281046001821680620001ae57607f821691505b60208210811415620001d057634e487b7160e01b600052602260045260246000fd5b50919050565b611a9b80620001e66000396000f3fe608060405234801561001057600080fd5b50600436106101375760003560e01c80634f6ccce7116100b857806395d89b411161007c57806395d89b411461027c578063a22cb46514610284578063b88d4fde14610297578063c87b56dd146102aa578063e985e9c5146102bd578063f2fde38b146102f957610137565b80634f6ccce71461022a5780636352211e1461023d57806370a0823114610250578063715018a6146102635780638da5cb5b1461026b57610137565b806318160ddd116100ff57806318160ddd146101cc57806323b872dd146101de5780632f745c59146101f157806340c10f191461020457806342842e0e1461021757610137565b8063016ea35a1461013c57806301ffc9a71461015157806306fdde0314610179578063081812fc1461018e578063095ea7b3146101b9575b600080fd5b61014f61014a3660046115a2565b61030c565b005b61016461015f366004611761565b61035f565b60405190151581526020015b60405180910390f35b610181610372565b6040516101709190611849565b6101a161019c366004611799565b610404565b6040516001600160a01b039091168152602001610170565b61014f6101c7366004611738565b610499565b6009545b604051908152602001610170565b61014f6101ec3660046115ee565b6105af565b6101d06101ff366004611738565b6105e0565b61014f610212366004611738565b610676565b61014f6102253660046115ee565b6106aa565b6101d0610238366004611799565b6106c5565b6101a161024b366004611799565b610766565b6101d061025e3660046115a2565b6107dd565b61014f610864565b6000546001600160a01b03166101a1565b61018161089a565b61014f6102923660046116fe565b6108a9565b61014f6102a5366004611629565b6108b4565b6101816102b8366004611799565b6108ec565b6101646102cb3660046115bc565b6001600160a01b03918216600090815260066020908152604080832093909416825291909152205460ff1690565b61014f6103073660046115a2565b6109d4565b6000546001600160a01b0316331461033f5760405162461bcd60e51b8152600401610336906118ae565b60405180910390fd5b600061034a60095490565b905061035b82610212836001611934565b5050565b600061036a82610a6f565b90505b919050565b606060018054610381906119a3565b80601f01602080910402602001604051908101604052809291908181526020018280546103ad906119a3565b80156103fa5780601f106103cf576101008083540402835291602001916103fa565b820191906000526020600020905b8154815290600101906020018083116103dd57829003601f168201915b5050505050905090565b6000818152600360205260408120546001600160a01b031661047d5760405162461bcd60e51b815260206004820152602c60248201527f4552433732313a20617070726f76656420717565727920666f72206e6f6e657860448201526b34b9ba32b73a103a37b5b2b760a11b6064820152608401610336565b506000908152600560205260409020546001600160a01b031690565b60006104a482610766565b9050806001600160a01b0316836001600160a01b031614156105125760405162461bcd60e51b815260206004820152602160248201527f4552433732313a20617070726f76616c20746f2063757272656e74206f776e656044820152603960f91b6064820152608401610336565b336001600160a01b038216148061052e575061052e81336102cb565b6105a05760405162461bcd60e51b815260206004820152603860248201527f4552433732313a20617070726f76652063616c6c6572206973206e6f74206f7760448201527f6e6572206e6f7220617070726f76656420666f7220616c6c00000000000000006064820152608401610336565b6105aa8383610a94565b505050565b6105b93382610b02565b6105d55760405162461bcd60e51b8152600401610336906118e3565b6105aa838383610bf9565b60006105eb836107dd565b821061064d5760405162461bcd60e51b815260206004820152602b60248201527f455243373231456e756d657261626c653a206f776e657220696e646578206f7560448201526a74206f6620626f756e647360a81b6064820152608401610336565b506001600160a01b03919091166000908152600760209081526040808320938352929052205490565b6000546001600160a01b031633146106a05760405162461bcd60e51b8152600401610336906118ae565b61035b8282610da4565b6105aa838383604051806020016040528060008152506108b4565b60006106d060095490565b82106107335760405162461bcd60e51b815260206004820152602c60248201527f455243373231456e756d657261626c653a20676c6f62616c20696e646578206f60448201526b7574206f6620626f756e647360a01b6064820152608401610336565b6009828154811061075457634e487b7160e01b600052603260045260246000fd5b90600052602060002001549050919050565b6000818152600360205260408120546001600160a01b03168061036a5760405162461bcd60e51b815260206004820152602960248201527f4552433732313a206f776e657220717565727920666f72206e6f6e657869737460448201526832b73a103a37b5b2b760b91b6064820152608401610336565b60006001600160a01b0382166108485760405162461bcd60e51b815260206004820152602a60248201527f4552433732313a2062616c616e636520717565727920666f7220746865207a65604482015269726f206164647265737360b01b6064820152608401610336565b506001600160a01b031660009081526004602052604090205490565b6000546001600160a01b0316331461088e5760405162461bcd60e51b8152600401610336906118ae565b6108986000610dbe565b565b606060028054610381906119a3565b61035b338383610e0e565b6108be3383610b02565b6108da5760405162461bcd60e51b8152600401610336906118e3565b6108e684848484610edd565b50505050565b6000818152600360205260409020546060906001600160a01b031661096b5760405162461bcd60e51b815260206004820152602f60248201527f4552433732314d657461646174613a2055524920717565727920666f72206e6f60448201526e3732bc34b9ba32b73a103a37b5b2b760891b6064820152608401610336565b600061098260408051602081019091526000815290565b905060008151116109a257604051806020016040528060008152506109cd565b806109ac84610f10565b6040516020016109bd9291906117dd565b6040516020818303038152906040525b9392505050565b6000546001600160a01b031633146109fe5760405162461bcd60e51b8152600401610336906118ae565b6001600160a01b038116610a635760405162461bcd60e51b815260206004820152602660248201527f4f776e61626c653a206e6577206f776e657220697320746865207a65726f206160448201526564647265737360d01b6064820152608401610336565b610a6c81610dbe565b50565b60006001600160e01b0319821663780e9d6360e01b148061036a575061036a8261102b565b600081815260056020526040902080546001600160a01b0319166001600160a01b0384169081179091558190610ac982610766565b6001600160a01b03167f8c5be1e5ebec7d5bd14f71427d1e84f3dd0314c0f7b2291e5b200ac8c7c3b92560405160405180910390a45050565b6000818152600360205260408120546001600160a01b0316610b7b5760405162461bcd60e51b815260206004820152602c60248201527f4552433732313a206f70657261746f7220717565727920666f72206e6f6e657860448201526b34b9ba32b73a103a37b5b2b760a11b6064820152608401610336565b6000610b8683610766565b9050806001600160a01b0316846001600160a01b03161480610bc15750836001600160a01b0316610bb684610404565b6001600160a01b0316145b80610bf157506001600160a01b0380821660009081526006602090815260408083209388168352929052205460ff165b949350505050565b826001600160a01b0316610c0c82610766565b6001600160a01b031614610c745760405162461bcd60e51b815260206004820152602960248201527f4552433732313a207472616e73666572206f6620746f6b656e2074686174206960448201526839903737ba1037bbb760b91b6064820152608401610336565b6001600160a01b038216610cd65760405162461bcd60e51b8152602060048201526024808201527f4552433732313a207472616e7366657220746f20746865207a65726f206164646044820152637265737360e01b6064820152608401610336565b610ce183838361107b565b610cec600082610a94565b6001600160a01b0383166000908152600460205260408120805460019290610d15908490611960565b90915550506001600160a01b0382166000908152600460205260408120805460019290610d43908490611934565b909155505060008181526003602052604080822080546001600160a01b0319166001600160a01b0386811691821790925591518493918716917fddf252ad1be2c89b69c2b068fc378daa952ba7f163c4a11628f55a4df523b3ef91a4505050565b61035b828260405180602001604052806000815250611086565b600080546001600160a01b038381166001600160a01b0319831681178455604051919092169283917f8be0079c531659141344cd1fd0a4f28419497f9722a3daafe3b4186f6b6457e09190a35050565b816001600160a01b0316836001600160a01b03161415610e705760405162461bcd60e51b815260206004820152601960248201527f4552433732313a20617070726f766520746f2063616c6c6572000000000000006044820152606401610336565b6001600160a01b03838116600081815260066020908152604080832094871680845294825291829020805460ff191686151590811790915591519182527f17307eab39ab6107e8899845ad3d59bd9653f200f220920489ca2b5937696c31910160405180910390a3505050565b610ee8848484610bf9565b610ef4848484846110b9565b6108e65760405162461bcd60e51b81526004016103369061185c565b606081610f3557506040805180820190915260018152600360fc1b602082015261036d565b8160005b8115610f5f5780610f49816119de565b9150610f589050600a8361194c565b9150610f39565b60008167ffffffffffffffff811115610f8857634e487b7160e01b600052604160045260246000fd5b6040519080825280601f01601f191660200182016040528015610fb2576020820181803683370190505b5090505b8415610bf157610fc7600183611960565b9150610fd4600a866119f9565b610fdf906030611934565b60f81b81838151811061100257634e487b7160e01b600052603260045260246000fd5b60200101906001600160f81b031916908160001a905350611024600a8661194c565b9450610fb6565b60006001600160e01b031982166380ac58cd60e01b148061105c57506001600160e01b03198216635b5e139f60e01b145b8061036a57506301ffc9a760e01b6001600160e01b031983161461036a565b6105aa8383836111c6565b6110908383611283565b61109d60008484846110b9565b6105aa5760405162461bcd60e51b81526004016103369061185c565b60006001600160a01b0384163b156111bb57604051630a85bd0160e11b81526001600160a01b0385169063150b7a02906110fd90339089908890889060040161180c565b602060405180830381600087803b15801561111757600080fd5b505af1925050508015611147575060408051601f3d908101601f191682019092526111449181019061177d565b60015b6111a1573d808015611175576040519150601f19603f3d011682016040523d82523d6000602084013e61117a565b606091505b5080516111995760405162461bcd60e51b81526004016103369061185c565b805181602001fd5b6001600160e01b031916630a85bd0160e11b149050610bf1565b506001949350505050565b6001600160a01b0383166112215761121c81600980546000838152600a60205260408120829055600182018355919091527f6e1540171b6c0c960b71a7020d9f60077f6af931a8bbf590da0223dacf75c7af0155565b611244565b816001600160a01b0316836001600160a01b0316146112445761124483826113d1565b6001600160a01b0382166112605761125b8161146e565b6105aa565b826001600160a01b0316826001600160a01b0316146105aa576105aa8282611547565b6001600160a01b0382166112d95760405162461bcd60e51b815260206004820181905260248201527f4552433732313a206d696e7420746f20746865207a65726f20616464726573736044820152606401610336565b6000818152600360205260409020546001600160a01b03161561133e5760405162461bcd60e51b815260206004820152601c60248201527f4552433732313a20746f6b656e20616c7265616479206d696e746564000000006044820152606401610336565b61134a6000838361107b565b6001600160a01b0382166000908152600460205260408120805460019290611373908490611934565b909155505060008181526003602052604080822080546001600160a01b0319166001600160a01b03861690811790915590518392907fddf252ad1be2c89b69c2b068fc378daa952ba7f163c4a11628f55a4df523b3ef908290a45050565b600060016113de846107dd565b6113e89190611960565b60008381526008602052604090205490915080821461143b576001600160a01b03841660009081526007602090815260408083208584528252808320548484528184208190558352600890915290208190555b5060009182526008602090815260408084208490556001600160a01b039094168352600781528383209183525290812055565b60095460009061148090600190611960565b6000838152600a6020526040812054600980549394509092849081106114b657634e487b7160e01b600052603260045260246000fd5b9060005260206000200154905080600983815481106114e557634e487b7160e01b600052603260045260246000fd5b6000918252602080832090910192909255828152600a9091526040808220849055858252812055600980548061152b57634e487b7160e01b600052603160045260246000fd5b6001900381819060005260206000200160009055905550505050565b6000611552836107dd565b6001600160a01b039093166000908152600760209081526040808320868452825280832085905593825260089052919091209190915550565b80356001600160a01b038116811461036d57600080fd5b6000602082840312156115b3578081fd5b6109cd8261158b565b600080604083850312156115ce578081fd5b6115d78361158b565b91506115e56020840161158b565b90509250929050565b600080600060608486031215611602578081fd5b61160b8461158b565b92506116196020850161158b565b9150604084013590509250925092565b6000806000806080858703121561163e578081fd5b6116478561158b565b93506116556020860161158b565b925060408501359150606085013567ffffffffffffffff80821115611678578283fd5b818701915087601f83011261168b578283fd5b81358181111561169d5761169d611a39565b604051601f8201601f19908116603f011681019083821181831017156116c5576116c5611a39565b816040528281528a60208487010111156116dd578586fd5b82602086016020830137918201602001949094529598949750929550505050565b60008060408385031215611710578182fd5b6117198361158b565b91506020830135801515811461172d578182fd5b809150509250929050565b6000806040838503121561174a578182fd5b6117538361158b565b946020939093013593505050565b600060208284031215611772578081fd5b81356109cd81611a4f565b60006020828403121561178e578081fd5b81516109cd81611a4f565b6000602082840312156117aa578081fd5b5035919050565b600081518084526117c9816020860160208601611977565b601f01601f19169290920160200192915050565b600083516117ef818460208801611977565b835190830190611803818360208801611977565b01949350505050565b6001600160a01b038581168252841660208201526040810183905260806060820181905260009061183f908301846117b1565b9695505050505050565b6000602082526109cd60208301846117b1565b60208082526032908201527f4552433732313a207472616e7366657220746f206e6f6e20455243373231526560408201527131b2b4bb32b91034b6b83632b6b2b73a32b960711b606082015260800190565b6020808252818101527f4f776e61626c653a2063616c6c6572206973206e6f7420746865206f776e6572604082015260600190565b60208082526031908201527f4552433732313a207472616e736665722063616c6c6572206973206e6f74206f6040820152701ddb995c881b9bdc88185c1c1c9bdd9959607a1b606082015260800190565b6000821982111561194757611947611a0d565b500190565b60008261195b5761195b611a23565b500490565b60008282101561197257611972611a0d565b500390565b60005b8381101561199257818101518382015260200161197a565b838111156108e65750506000910152565b6002810460018216806119b757607f821691505b602082108114156119d857634e487b7160e01b600052602260045260246000fd5b50919050565b60006000198214156119f2576119f2611a0d565b5060010190565b600082611a0857611a08611a23565b500690565b634e487b7160e01b600052601160045260246000fd5b634e487b7160e01b600052601260045260246000fd5b634e487b7160e01b600052604160045260246000fd5b6001600160e01b031981168114610a6c57600080fdfea26469706673582212209294aebefd514c3e26c406f7662a67d205ad0ebebc67fa028bcd11c4255c74a064736f6c63430008020033",
  "linkReferences": {},
  "deployedLinkReferences": {}
}