{
  "_format": "hh-sol-artifact-1",
  "contractName": "ERC721ExchangeUpgradeable",
  "sourceName": "contracts/ERC721ExchangeUpgradeable.sol",
  "abi": [
    {
      "anonymous": false,
      "inputs": [
        {
          "indexed": false,
          "internalType": "address",
          "name": "buyer",
          "type": "address"
        },
        {
          "indexed": true,
          "internalType": "address",
          "name": "seller",
          "type": "address"
        },
        {
          "indexed": true,
          "internalType": "address",
          "name": "tokenContractAddress",
          "type": "address"
        },
        {
          "indexed": true,
          "internalType": "uint256",
          "name": "tokenId",
          "type": "uint256"
        },
        {
          "indexed": false,
          "internalType": "uint256",
          "name": "offer",
          "type": "uint256"
        }
      ],
      "name": "BuyOrderAccepted",
      "type": "event"
    },
    {
      "anonymous": false,
      "inputs": [
        {
          "indexed": true,
          "internalType": "address",
          "name": "buyer",
          "type": "address"
        },
        {
          "indexed": false,
          "internalType": "address",
          "name": "owner",
          "type": "address"
        },
        {
          "indexed": true,
          "internalType": "address",
          "name": "tokenContractAddress",
          "type": "address"
        },
        {
          "indexed": true,
          "internalType": "uint256",
          "name": "tokenId",
          "type": "uint256"
        },
        {
          "indexed": false,
          "internalType": "uint256",
          "name": "expiration",
          "type": "uint256"
        },
        {
          "indexed": false,
          "internalType": "uint256",
          "name": "offer",
          "type": "uint256"
        }
      ],
      "name": "BuyOrderBooked",
      "type": "event"
    },
    {
      "anonymous": false,
      "inputs": [
        {
          "indexed": true,
          "internalType": "address",
          "name": "buyer",
          "type": "address"
        },
        {
          "indexed": true,
          "internalType": "address",
          "name": "tokenContractAddress",
          "type": "address"
        },
        {
          "indexed": true,
          "internalType": "uint256",
          "name": "tokenId",
          "type": "uint256"
        }
      ],
      "name": "BuyOrderCanceled",
      "type": "event"
    },
    {
      "anonymous": false,
      "inputs": [
        {
          "indexed": true,
          "internalType": "address",
          "name": "tokenContractAddress",
          "type": "address"
        },
        {
          "indexed": true,
          "internalType": "address",
          "name": "executor",
          "type": "address"
        },
        {
          "indexed": false,
          "internalType": "uint256",
          "name": "newRoyaltiesAmount",
          "type": "uint256"
        },
        {
          "indexed": false,
          "internalType": "uint256",
          "name": "oldRoyaltiesAmount",
          "type": "uint256"
        }
      ],
      "name": "CollectionRoyaltyFeeAmountUpdated",
      "type": "event"
    },
    {
      "anonymous": false,
      "inputs": [
        {
          "indexed": true,
          "internalType": "address",
          "name": "tokenContractAddress",
          "type": "address"
        },
        {
          "indexed": true,
          "internalType": "address",
          "name": "executor",
          "type": "address"
        },
        {
          "indexed": true,
          "internalType": "address",
          "name": "newPayoutAddress",
          "type": "address"
        },
        {
          "indexed": false,
          "internalType": "address",
          "name": "oldPayoutAddress",
          "type": "address"
        }
      ],
      "name": "CollectionRoyaltyPayoutAddressUpdated",
      "type": "event"
    },
    {
      "anonymous": false,
      "inputs": [
        {
          "indexed": true,
          "internalType": "address",
          "name": "previousOwner",
          "type": "address"
        },
        {
          "indexed": true,
          "internalType": "address",
          "name": "newOwner",
          "type": "address"
        }
      ],
      "name": "OwnershipTransferred",
      "type": "event"
    },
    {
      "anonymous": false,
      "inputs": [
        {
          "indexed": false,
          "internalType": "address",
          "name": "account",
          "type": "address"
        }
      ],
      "name": "Paused",
      "type": "event"
    },
    {
      "anonymous": false,
      "inputs": [
        {
          "indexed": true,
          "internalType": "address",
          "name": "seller",
          "type": "address"
        },
        {
          "indexed": true,
          "internalType": "address",
          "name": "tokenContractAddress",
          "type": "address"
        },
        {
          "indexed": true,
          "internalType": "uint256",
          "name": "tokenId",
          "type": "uint256"
        },
        {
          "indexed": false,
          "internalType": "uint256",
          "name": "expiration",
          "type": "uint256"
        },
        {
          "indexed": false,
          "internalType": "uint256",
          "name": "price",
          "type": "uint256"
        }
      ],
      "name": "SellOrderBooked",
      "type": "event"
    },
    {
      "anonymous": false,
      "inputs": [
        {
          "indexed": true,
          "internalType": "address",
          "name": "seller",
          "type": "address"
        },
        {
          "indexed": true,
          "internalType": "address",
          "name": "tokenContractAddress",
          "type": "address"
        },
        {
          "indexed": true,
          "internalType": "uint256",
          "name": "tokenId",
          "type": "uint256"
        }
      ],
      "name": "SellOrderCanceled",
      "type": "event"
    },
    {
      "anonymous": false,
      "inputs": [
        {
          "indexed": true,
          "internalType": "address",
          "name": "seller",
          "type": "address"
        },
        {
          "indexed": false,
          "internalType": "address",
          "name": "recipient",
          "type": "address"
        },
        {
          "indexed": true,
          "internalType": "address",
          "name": "tokenContractAddress",
          "type": "address"
        },
        {
          "indexed": true,
          "internalType": "uint256",
          "name": "tokenId",
          "type": "uint256"
        },
        {
          "indexed": false,
          "internalType": "uint256",
          "name": "price",
          "type": "uint256"
        }
      ],
      "name": "SellOrderFufilled",
      "type": "event"
    },
    {
      "anonymous": false,
      "inputs": [
        {
          "indexed": true,
          "internalType": "address",
          "name": "seller",
          "type": "address"
        },
        {
          "indexed": true,
          "internalType": "address",
          "name": "tokenContractAddress",
          "type": "address"
        },
        {
          "indexed": true,
          "internalType": "uint256",
          "name": "tokenId",
          "type": "uint256"
        },
        {
          "indexed": false,
          "internalType": "uint256",
          "name": "expiration",
          "type": "uint256"
        },
        {
          "indexed": false,
          "internalType": "uint256",
          "name": "price",
          "type": "uint256"
        }
      ],
      "name": "SellOrderUpdated",
      "type": "event"
    },
    {
      "anonymous": false,
      "inputs": [
        {
          "indexed": false,
          "internalType": "address",
          "name": "account",
          "type": "address"
        }
      ],
      "name": "Unpaused",
      "type": "event"
    },
    {
      "inputs": [
        {
          "internalType": "uint256",
          "name": "__maxRoyaltyPerMille",
          "type": "uint256"
        },
        {
          "internalType": "uint256",
          "name": "__systemFeePerMille",
          "type": "uint256"
        },
        {
          "internalType": "address",
          "name": "__wethAddress",
          "type": "address"
        }
      ],
      "name": "__ERC721Exchange_init",
      "outputs": [],
      "stateMutability": "nonpayable",
      "type": "function"
    },
    {
      "inputs": [
        {
          "internalType": "address payable",
          "name": "bidder",
          "type": "address"
        },
        {
          "internalType": "address",
          "name": "tokenContractAddress",
          "type": "address"
        },
        {
          "internalType": "uint256",
          "name": "tokenId",
          "type": "uint256"
        },
        {
          "internalType": "uint256",
          "name": "expiration",
          "type": "uint256"
        },
        {
          "internalType": "uint256",
          "name": "offer",
          "type": "uint256"
        }
      ],
      "name": "acceptBuyOrder",
      "outputs": [],
      "stateMutability": "nonpayable",
      "type": "function"
    },
    {
      "inputs": [
        {
          "internalType": "address",
          "name": "buyer",
          "type": "address"
        },
        {
          "internalType": "address",
          "name": "tokenContractAddress",
          "type": "address"
        },
        {
          "internalType": "uint256",
          "name": "tokenId",
          "type": "uint256"
        }
      ],
      "name": "buyOrderExists",
      "outputs": [
        {
          "internalType": "bool",
          "name": "",
          "type": "bool"
        }
      ],
      "stateMutability": "view",
      "type": "function"
    },
    {
      "inputs": [
        {
          "internalType": "address",
          "name": "tokenContractAddress",
          "type": "address"
        },
        {
          "internalType": "uint256",
          "name": "tokenId",
          "type": "uint256"
        }
      ],
      "name": "cancelBuyOrder",
      "outputs": [],
      "stateMutability": "nonpayable",
      "type": "function"
    },
    {
      "inputs": [
        {
          "internalType": "address",
          "name": "tokenContractAddress",
          "type": "address"
        },
        {
          "internalType": "uint256",
          "name": "tokenId",
          "type": "uint256"
        }
      ],
      "name": "cancelSellOrder",
      "outputs": [],
      "stateMutability": "nonpayable",
      "type": "function"
    },
    {
      "inputs": [
        {
          "internalType": "address payable",
          "name": "owner",
          "type": "address"
        },
        {
          "internalType": "address",
          "name": "tokenContractAddress",
          "type": "address"
        },
        {
          "internalType": "uint256",
          "name": "tokenId",
          "type": "uint256"
        },
        {
          "internalType": "uint256",
          "name": "expiration",
          "type": "uint256"
        },
        {
          "internalType": "uint256",
          "name": "offer",
          "type": "uint256"
        }
      ],
      "name": "createBuyOrder",
      "outputs": [],
      "stateMutability": "nonpayable",
      "type": "function"
    },
    {
      "inputs": [
        {
          "internalType": "address",
          "name": "tokenContractAddress",
          "type": "address"
        },
        {
          "internalType": "uint256",
          "name": "tokenId",
          "type": "uint256"
        },
        {
          "internalType": "uint256",
          "name": "expiration",
          "type": "uint256"
        },
        {
          "internalType": "uint256",
          "name": "price",
          "type": "uint256"
        }
      ],
      "name": "createSellOrder",
      "outputs": [],
      "stateMutability": "nonpayable",
      "type": "function"
    },
    {
      "inputs": [
        {
          "internalType": "address payable",
          "name": "seller",
          "type": "address"
        },
        {
          "internalType": "address",
          "name": "tokenContractAddress",
          "type": "address"
        },
        {
          "internalType": "uint256",
          "name": "tokenId",
          "type": "uint256"
        },
        {
          "internalType": "uint256",
          "name": "expiration",
          "type": "uint256"
        },
        {
          "internalType": "uint256",
          "name": "price",
          "type": "uint256"
        },
        {
          "internalType": "address payable",
          "name": "recipient",
          "type": "address"
        }
      ],
      "name": "executeSellOrder",
      "outputs": [],
      "stateMutability": "payable",
      "type": "function"
    },
    {
      "inputs": [
        {
          "internalType": "address",
          "name": "buyer",
          "type": "address"
        },
        {
          "internalType": "address",
          "name": "tokenContractAddress",
          "type": "address"
        },
        {
          "internalType": "uint256",
          "name": "tokenId",
          "type": "uint256"
        }
      ],
      "name": "getBuyOrder",
      "outputs": [
        {
          "components": [
            {
              "internalType": "address payable",
              "name": "buyer",
              "type": "address"
            },
            {
              "internalType": "address payable",
              "name": "owner",
              "type": "address"
            },
            {
              "internalType": "address",
              "name": "tokenContractAddress",
              "type": "address"
            },
            {
              "internalType": "uint256",
              "name": "tokenId",
              "type": "uint256"
            },
            {
              "internalType": "uint256",
              "name": "expiration",
              "type": "uint256"
            },
            {
              "internalType": "uint256",
              "name": "offer",
              "type": "uint256"
            }
          ],
          "internalType": "struct ERC721ExchangeUpgradeable.BuyOrder",
          "name": "",
          "type": "tuple"
        }
      ],
      "stateMutability": "view",
      "type": "function"
    },
    {
      "inputs": [
        {
          "internalType": "address",
          "name": "_tokenContractAddress",
          "type": "address"
        }
      ],
      "name": "getRoyaltyPayoutAddress",
      "outputs": [
        {
          "internalType": "address",
          "name": "",
          "type": "address"
        }
      ],
      "stateMutability": "view",
      "type": "function"
    },
    {
      "inputs": [
        {
          "internalType": "address",
          "name": "_tokenContractAddress",
          "type": "address"
        }
      ],
      "name": "getRoyaltyPayoutRate",
      "outputs": [
        {
          "internalType": "uint256",
          "name": "",
          "type": "uint256"
        }
      ],
      "stateMutability": "view",
      "type": "function"
    },
    {
      "inputs": [
        {
          "internalType": "address",
          "name": "seller",
          "type": "address"
        },
        {
          "internalType": "address",
          "name": "tokenContractAddress",
          "type": "address"
        },
        {
          "internalType": "uint256",
          "name": "tokenId",
          "type": "uint256"
        }
      ],
      "name": "getSellOrder",
      "outputs": [
        {
          "components": [
            {
              "internalType": "address payable",
              "name": "seller",
              "type": "address"
            },
            {
              "internalType": "address",
              "name": "tokenContractAddress",
              "type": "address"
            },
            {
              "internalType": "uint256",
              "name": "tokenId",
              "type": "uint256"
            },
            {
              "internalType": "uint256",
              "name": "expiration",
              "type": "uint256"
            },
            {
              "internalType": "uint256",
              "name": "price",
              "type": "uint256"
            }
          ],
          "internalType": "struct ERC721ExchangeUpgradeable.SellOrder",
          "name": "",
          "type": "tuple"
        }
      ],
      "stateMutability": "view",
      "type": "function"
    },
    {
      "inputs": [],
      "name": "owner",
      "outputs": [
        {
          "internalType": "address",
          "name": "",
          "type": "address"
        }
      ],
      "stateMutability": "view",
      "type": "function"
    },
    {
      "inputs": [],
      "name": "pause",
      "outputs": [],
      "stateMutability": "nonpayable",
      "type": "function"
    },
    {
      "inputs": [],
      "name": "paused",
      "outputs": [
        {
          "internalType": "bool",
          "name": "",
          "type": "bool"
        }
      ],
      "stateMutability": "view",
      "type": "function"
    },
    {
      "inputs": [],
      "name": "renounceOwnership",
      "outputs": [],
      "stateMutability": "nonpayable",
      "type": "function"
    },
    {
      "inputs": [
        {
          "internalType": "address",
          "name": "seller",
          "type": "address"
        },
        {
          "internalType": "address",
          "name": "tokenContractAddress",
          "type": "address"
        },
        {
          "internalType": "uint256",
          "name": "tokenId",
          "type": "uint256"
        }
      ],
      "name": "sellOrderExists",
      "outputs": [
        {
          "internalType": "bool",
          "name": "",
          "type": "bool"
        }
      ],
      "stateMutability": "view",
      "type": "function"
    },
    {
      "inputs": [
        {
          "internalType": "address",
          "name": "_tokenContractAddress",
          "type": "address"
        },
        {
          "internalType": "address payable",
          "name": "_payoutAddress",
          "type": "address"
        },
        {
          "internalType": "uint256",
          "name": "_payoutPerMille",
          "type": "uint256"
        }
      ],
      "name": "setRoyalty",
      "outputs": [],
      "stateMutability": "nonpayable",
      "type": "function"
    },
    {
      "inputs": [
        {
          "internalType": "uint256",
          "name": "_newSystemFeePerMille",
          "type": "uint256"
        }
      ],
      "name": "setSystemFeePerMille",
      "outputs": [],
      "stateMutability": "nonpayable",
      "type": "function"
    },
    {
      "inputs": [
        {
          "internalType": "address payable",
          "name": "_newSystemFeeWallet",
          "type": "address"
        }
      ],
      "name": "setSystemFeeWallet",
      "outputs": [],
      "stateMutability": "nonpayable",
      "type": "function"
    },
    {
      "inputs": [
        {
          "internalType": "address",
          "name": "newOwner",
          "type": "address"
        }
      ],
      "name": "transferOwnership",
      "outputs": [],
      "stateMutability": "nonpayable",
      "type": "function"
    },
    {
      "inputs": [],
      "name": "unpause",
      "outputs": [],
      "stateMutability": "nonpayable",
      "type": "function"
    },
    {
      "inputs": [
        {
          "internalType": "address",
          "name": "tokenContractAddress",
          "type": "address"
        },
        {
          "internalType": "uint256",
          "name": "tokenId",
          "type": "uint256"
        },
        {
          "internalType": "uint256",
          "name": "expiration",
          "type": "uint256"
        },
        {
          "internalType": "uint256",
          "name": "price",
          "type": "uint256"
        }
      ],
      "name": "updateSellOrder",
      "outputs": [],
      "stateMutability": "nonpayable",
      "type": "function"
    },
    {
      "inputs": [],
      "name": "version",
      "outputs": [
        {
          "internalType": "string",
          "name": "",
          "type": "string"
        }
      ],
      "stateMutability": "pure",
      "type": "function"
    },
    {
      "inputs": [],
      "name": "withdraw",
      "outputs": [],
      "stateMutability": "nonpayable",
      "type": "function"
    }
  ],
  "bytecode": "0x608060405234801561001057600080fd5b5061346d806100206000396000f3fe6080604052600436106101665760003560e01c80635977c92c116100d1578063a831193f1161008a578063ceda1cb511610064578063ceda1cb514610432578063ec4210ff14610452578063f2fde38b14610496578063fcce8f0d146104b657610166565b8063a831193f146103c5578063b50221b6146103f2578063b6bbccfd1461041257610166565b80635977c92c146103255780635c975abb1461034557806370e9ff601461035d578063715018a61461037d5780638456cb59146103925780638da5cb5b146103a757610166565b80633871462b116101235780633871462b146102735780633ccfd60b146102865780633f4ba83a1461029b578063438aeabc146102b057806354fd4d50146102d057806355c338aa1461030557610166565b8063145131d01461016b5780631b2e5e4a1461018d5780632993ed2d146101ad5780632df5cb23146101cd5780632f113b751461022357806337741aed14610243575b600080fd5b34801561017757600080fd5b5061018b610186366004612f1f565b6104e3565b005b34801561019957600080fd5b5061018b6101a8366004612dfe565b610562565b3480156101b957600080fd5b5061018b6101c8366004612ef4565b610697565b3480156101d957600080fd5b506102066101e8366004612dbf565b6001600160a01b03908116600090815260cd60205260409020541690565b6040516001600160a01b0390911681526020015b60405180910390f35b34801561022f57600080fd5b5061018b61023e366004612f79565b610720565b34801561024f57600080fd5b5061026361025e366004612eb4565b61074f565b604051901515815260200161021a565b61018b610281366004612e4e565b6107dc565b34801561029257600080fd5b5061018b61090d565b3480156102a757600080fd5b5061018b610966565b3480156102bc57600080fd5b5061018b6102cb366004612dfe565b61099a565b3480156102dc57600080fd5b506040805180820182526006815265076312e302e360d41b6020820152905161021a9190613021565b34801561031157600080fd5b5061018b610320366004612eb4565b610ab9565b34801561033157600080fd5b5061018b610340366004612f1f565b610d5a565b34801561035157600080fd5b5060655460ff16610263565b34801561036957600080fd5b5061018b610378366004612ef4565b610dc9565b34801561038957600080fd5b5061018b610e4e565b34801561039e57600080fd5b5061018b610e82565b3480156103b357600080fd5b506033546001600160a01b0316610206565b3480156103d157600080fd5b506103e56103e0366004612eb4565b610eb4565b60405161021a9190613347565b3480156103fe57600080fd5b5061018b61040d366004612dbf565b610fc5565b34801561041e57600080fd5b5061018b61042d366004612fa9565b611011565b34801561043e57600080fd5b5061026361044d366004612eb4565b61111b565b34801561045e57600080fd5b5061048861046d366004612dbf565b6001600160a01b0316600090815260ce602052604090205490565b60405190815260200161021a565b3480156104a257600080fd5b5061018b6104b1366004612dbf565b61119a565b3480156104c257600080fd5b506104d66104d1366004612eb4565b611235565b60405161021a91906132f8565b60655460ff161561050f5760405162461bcd60e51b8152600401610506906131c7565b60405180910390fd5b60006040518060a001604052806105233390565b6001600160a01b03168152602001866001600160a01b0316815260200185815260200184815260200183815250905061055b81611342565b5050505050565b60655460ff16156105855760405162461bcd60e51b8152600401610506906131c7565b60c95481906001600160a01b031663dd62ed3e336040516001600160e01b031960e084901b1681526001600160a01b03909116600482015230602482015260440160206040518083038186803b1580156105de57600080fd5b505afa1580156105f2573d6000803e3d6000fd5b505050506040513d601f19601f820116820180604052508101906106169190612f91565b10156106345760405162461bcd60e51b81526004016105069061310d565b60006040518060c001604052806106483390565b6001600160a01b03168152602001876001600160a01b03168152602001866001600160a01b0316815260200185815260200184815260200183815250905061068f8161163b565b505050505050565b60655460ff16156106ba5760405162461bcd60e51b8152600401610506906131c7565b6106c533838361111b565b6107115760405162461bcd60e51b815260206004820152601f60248201527f546869732073656c6c206f7264657220646f6573206e6f742065786973742e006044820152606401610506565b61071c3383836118b9565b5050565b6033546001600160a01b0316331461074a5760405162461bcd60e51b8152600401610506906131f1565b60cb55565b60008060d061075f868686611950565b60405161076c9190612fe1565b908152604080516020928190038301812060c08201835280546001600160a01b03908116835260018201548116948301949094526002810154909316918101919091526003820154606082015260048201546080820181905260059092015460a090910152151595945050505050565b60655460ff16156107ff5760405162461bcd60e51b8152600401610506906131c7565b600260975414156108525760405162461bcd60e51b815260206004820152601f60248201527f5265656e7472616e637947756172643a207265656e7472616e742063616c6c006044820152606401610506565b6002609755348211156108c35760405162461bcd60e51b815260206004820152603360248201527f596f7572207472616e73616374696f6e20646f65736e2774206861766520746860448201527232903932b8bab4b932b2103830bcb6b2b73a1760691b6064820152608401610506565b6040805160a0810182526001600160a01b0380891682528716602082015290810185905260608101849052608081018390526108ff81836119ad565b505060016097555050505050565b6033546001600160a01b031633146109375760405162461bcd60e51b8152600401610506906131f1565b6040514790339082156108fc029083906000818181858888f1935050505015801561071c573d6000803e3d6000fd5b6033546001600160a01b031633146109905760405162461bcd60e51b8152600401610506906131f1565b610998611fdd565b565b60655460ff16156109bd5760405162461bcd60e51b8152600401610506906131c7565b60c954604051636eb1769f60e11b81526001600160a01b0387811660048301523060248301528392169063dd62ed3e9060440160206040518083038186803b158015610a0857600080fd5b505afa158015610a1c573d6000803e3d6000fd5b505050506040513d601f19601f82011682018060405250810190610a409190612f91565b1015610a5e5760405162461bcd60e51b81526004016105069061310d565b60006040518060c00160405280876001600160a01b03168152602001610a813390565b6001600160a01b03168152602001866001600160a01b0316815260200185815260200184815260200183815250905061068f81612070565b60cc54811115600a60cc54610ace919061338a565b6040517f526f79616c7479206d757374206265206265747765656e203020616e642000006020820152603e810191909152602560f81b605e820152605f0160405160208183030381529060405290610b395760405162461bcd60e51b81526004016105069190613021565b50610b546001600160a01b0384166380ac58cd60e01b61262a565b610b705760405162461bcd60e51b815260040161050690613226565b6000839050806001600160a01b0316638da5cb5b6040518163ffffffff1660e01b815260040160206040518083038186803b158015610bae57600080fd5b505afa158015610bc2573d6000803e3d6000fd5b505050506040513d601f19601f82011682018060405250810190610be69190612de2565b6001600160a01b0316336001600160a01b03161480610c0f57506033546001600160a01b031633145b610c545760405162461bcd60e51b8152602060048201526016602482015275105111149154d4d7d393d517d055551213d49256915160521b6044820152606401610506565b6001600160a01b03848116600081815260cd602090815260409182902054825190851681529151938716933393927f22b4c9bae1c03b433a3b239b13770550aa93e69b0ac8b7becd4345d2bb2b93f692908290030190a46001600160a01b03848116600090815260cd6020526040902080546001600160a01b031916918516919091179055610ce03390565b6001600160a01b03858116600081815260ce602090815260409182902054825188815291820152939092169290917fc79f434969d42d2d3a041a740a67d2c62cf2613f5c52b5e90e2fdda35a5de9ec910160405180910390a3506001600160a01b03909216600090815260ce602052604090209190915550565b60655460ff1615610d7d5760405162461bcd60e51b8152600401610506906131c7565b60006040518060a00160405280610d913390565b6001600160a01b03168152602001866001600160a01b0316815260200185815260200184815260200183815250905061055b8161264f565b60655460ff1615610dec5760405162461bcd60e51b8152600401610506906131c7565b610df733838361074f565b610e435760405162461bcd60e51b815260206004820152601e60248201527f5468697320627579206f7264657220646f6573206e6f742065786973742e00006044820152606401610506565b61071c338383612941565b6033546001600160a01b03163314610e785760405162461bcd60e51b8152600401610506906131f1565b61099860006129e2565b6033546001600160a01b03163314610eac5760405162461bcd60e51b8152600401610506906131f1565b610998612a34565b610ef86040518060a0016040528060006001600160a01b0316815260200160006001600160a01b031681526020016000815260200160008152602001600081525090565b610f0384848461111b565b610f4f5760405162461bcd60e51b815260206004820152601f60248201527f546869732073656c6c206f7264657220646f6573206e6f742065786973742e006044820152606401610506565b60cf610f5c858585611950565b604051610f699190612fe1565b90815260408051918290036020908101832060a08401835280546001600160a01b039081168552600182015416918401919091526002810154918301919091526003810154606083015260040154608082015290509392505050565b6033546001600160a01b03163314610fef5760405162461bcd60e51b8152600401610506906131f1565b60ca80546001600160a01b0319166001600160a01b0392909216919091179055565b600054610100900460ff1661102c5760005460ff1615611030565b303b155b6110935760405162461bcd60e51b815260206004820152602e60248201527f496e697469616c697a61626c653a20636f6e747261637420697320616c72656160448201526d191e481a5b9a5d1a585b1a5e995960921b6064820152608401610506565b600054610100900460ff161580156110be576000805460ff1961ff0019909116610100171660011790555b6110c6612a8c565b6110ce612abb565b6110d6612af2565b6110de612b29565b60cc84905560cb83905560c980546001600160a01b0319166001600160a01b0384161790558015611115576000805461ff00191690555b50505050565b60008060cf61112b868686611950565b6040516111389190612fe1565b908152604080516020928190038301812060a08201835280546001600160a01b03908116835260018201541693820193909352600283015491810191909152600382015460608201819052600490920154608090910152151595945050505050565b6033546001600160a01b031633146111c45760405162461bcd60e51b8152600401610506906131f1565b6001600160a01b0381166112295760405162461bcd60e51b815260206004820152602660248201527f4f776e61626c653a206e6577206f776e657220697320746865207a65726f206160448201526564647265737360d01b6064820152608401610506565b611232816129e2565b50565b6040805160c081018252600080825260208201819052918101829052606081018290526080810182905260a081019190915261127284848461074f565b6112be5760405162461bcd60e51b815260206004820152601e60248201527f5468697320627579206f7264657220646f6573206e6f742065786973742e00006044820152606401610506565b60d06112cb858585611950565b6040516112d89190612fe1565b90815260408051918290036020908101832060c08401835280546001600160a01b039081168552600182015481169285019290925260028101549091169183019190915260038101546060830152600481015460808301526005015460a082015290509392505050565b61135981600001518260200151836040015161111b565b6113a55760405162461bcd60e51b815260206004820152601a60248201527f54686973206f7264657220646f65736e2774206578697374732e0000000000006044820152606401610506565b60208101516113c4906001600160a01b03166380ac58cd60e01b61262a565b6113e05760405162461bcd60e51b815260040161050690613226565b806060015142106114035760405162461bcd60e51b815260040161050690613190565b6020810151815160408084015190516331a9108f60e11b815260048101919091526001600160a01b0391821691831690636352211e9060240160206040518083038186803b15801561145457600080fd5b505afa158015611468573d6000803e3d6000fd5b505050506040513d601f19601f8201168201806040525081019061148c9190612de2565b6001600160a01b0316146114b25760405162461bcd60e51b8152600401610506906130c3565b604080830151905163020604bf60e21b815230916001600160a01b0384169163081812fc916114e79160040190815260200190565b60206040518083038186803b1580156114ff57600080fd5b505afa158015611513573d6000803e3d6000fd5b505050506040513d601f19601f820116820180604052508101906115379190612de2565b6001600160a01b03161461155d5760405162461bcd60e51b815260040161050690613054565b8160cf611577846000015185602001518660400151611950565b6040516115849190612fe1565b9081526040805160209281900383018120845181546001600160a01b03199081166001600160a01b0392831617835586860151600184018054909216908316179055858401516002830155606080870151600384015560809687015160049093019290925587840151888601518951938a0151978a0151978552958401969096529384169316917fa536b30631962e18c4c8227fa809220e94ea269bac35859efbc569ccf78982f091015b60405180910390a45050565b61165281600001518260400151836060015161074f565b1561169f5760405162461bcd60e51b815260206004820152601a60248201527f54686973206f7264657220616c7265616479206578697374732e0000000000006044820152606401610506565b60408101516116be906001600160a01b03166380ac58cd60e01b61262a565b6116da5760405162461bcd60e51b815260040161050690613226565b806080015142106116fd5760405162461bcd60e51b815260040161050690613190565b60008160400151905081602001516001600160a01b0316816001600160a01b0316636352211e84606001516040518263ffffffff1660e01b815260040161174691815260200190565b60206040518083038186803b15801561175e57600080fd5b505afa158015611772573d6000803e3d6000fd5b505050506040513d601f19601f820116820180604052508101906117969190612de2565b6001600160a01b0316146117bc5760405162461bcd60e51b815260040161050690613250565b8160d06117d6846000015185604001518660600151611950565b6040516117e39190612fe1565b9081526040805160209281900383018120845181546001600160a01b03199081166001600160a01b03928316178355868601516001840180548316918416919091179055868501516002840180549092169083161790556060808701516003840155608080880151600485015560a09788015160059094019390935588810151898601518a518b890151958c0151998c0151958516875297860198909852948401929092529294831693909216917f69e98887027fa435a3ef2f96aeec2a2e7d88e19196d7afb8eebcad1a31ee6100910161162f565b60cf6118c6848484611950565b6040516118d39190612fe1565b90815260405190819003602001812080546001600160a01b03199081168255600182018054909116905560006002820181905560038201819055600490910181905582916001600160a01b0385811692908716917f1df1e161692f4f870c425180866da985448ed76f0ff746b99437c81f09254de99190a4505050565b604051606084811b6bffffffffffffffffffffffff199081166020840152602d60f81b6034840181905285831b90911660358401526049830152604a820183905290606a0160405160208183030381529060405290509392505050565b60006119c6836000015184602001518560400151610eb4565b90506119d28184612b58565b611a445760405162461bcd60e51b815260206004820152603c60248201527f5061737365642073656c6c206f72646572206461746120646f65736e2774206560448201527f7175616c2073746f7265642073656c6c206f7264657220646174612e000000006064820152608401610506565b6020810151611a63906001600160a01b03166380ac58cd60e01b61262a565b611a7f5760405162461bcd60e51b815260040161050690613226565b80606001514210611ad25760405162461bcd60e51b815260206004820152601c60248201527f546869732073656c6c206f726465722068617320657870697265642e000000006044820152606401610506565b6020810151815160408084015190516331a9108f60e11b815260048101919091526001600160a01b0391821691831690636352211e9060240160206040518083038186803b158015611b2357600080fd5b505afa158015611b37573d6000803e3d6000fd5b505050506040513d601f19601f82011682018060405250810190611b5b9190612de2565b6001600160a01b031614611b815760405162461bcd60e51b8152600401610506906130c3565b604080830151905163020604bf60e21b815230916001600160a01b0384169163081812fc91611bb69160040190815260200190565b60206040518083038186803b158015611bce57600080fd5b505afa158015611be2573d6000803e3d6000fd5b505050506040513d601f19601f82011682018060405250810190611c069190612de2565b6001600160a01b031614611c2c5760405162461bcd60e51b815260040161050690613054565b6020808301516001600160a01b0316600090815260ce90915260408120546103e890611c599034906133aa565b611c63919061338a565b905060006103e83460cb54611c7891906133aa565b611c82919061338a565b9050600081611c9184346133c9565b611c9b91906133c9565b90508215611d7f576020858101516001600160a01b03908116600090815260cd9092526040808320549051911691908190839087908381818185875af1925050503d8060008114611d08576040519150601f19603f3d011682016040523d82523d6000602084013e611d0d565b606091505b509150915081611d7b5760405162461bcd60e51b815260206004820152603360248201527f4661696c656420746f2073656e642045544820746f20636f6c6c656374696f6e60448201527232103937bcb0b63a34b2b9903bb0b63632ba1760691b6064820152608401610506565b5050505b60ca5460405160009182916001600160a01b039091169085908381818185875af1925050503d8060008114611dd0576040519150601f19603f3d011682016040523d82523d6000602084013e611dd5565b606091505b509150915081611e385760405162461bcd60e51b815260206004820152602860248201527f4661696c656420746f2073656e642045544820746f2073797374656d20666565604482015267103bb0b63632ba1760c11b6064820152608401610506565b60008088600001516001600160a01b03168560405160006040518083038185875af1925050503d8060008114611e8a576040519150601f19603f3d011682016040523d82523d6000602084013e611e8f565b606091505b509150915081611ee15760405162461bcd60e51b815260206004820152601d60248201527f4661696c656420746f2073656e642045544820746f2073656c6c65722e0000006044820152606401610506565b88516040808b01519051632142170760e11b81526001600160a01b038b16926342842e0e92611f15928f9190600401612ffd565b600060405180830381600087803b158015611f2f57600080fd5b505af1158015611f43573d6000803e3d6000fd5b50505050611f5e89600001518a602001518b604001516118b9565b886040015189602001516001600160a01b03168a600001516001600160a01b03167f9fe03e931575da48530da93cbe04c8c5b18051fa26a3ab75787c0e5881db943e8d8d60800151604051611fc89291906001600160a01b03929092168252602082015260400190565b60405180910390a45050505050505050505050565b60655460ff166120265760405162461bcd60e51b815260206004820152601460248201527314185d5cd8589b194e881b9bdd081c185d5cd95960621b6044820152606401610506565b6065805460ff191690557f5db9ee0a495bf2e6ff9c91a7834c1ba4fdd244a5e8aa4e537bd38aeae4b073aa335b6040516001600160a01b03909116815260200160405180910390a1565b6000612089826000015183604001518460600151611235565b90506120958282612bb1565b6121075760405162461bcd60e51b815260206004820152603a60248201527f50617373656420627579206f72646572206461746120646f65736e277420657160448201527f75616c2073746f72656420627579206f7264657220646174612e0000000000006064820152608401610506565b6040810151612126906001600160a01b03166380ac58cd60e01b61262a565b6121425760405162461bcd60e51b815260040161050690613226565b806080015142106121955760405162461bcd60e51b815260206004820152601b60248201527f5468697320627579206f726465722068617320657870697265642e00000000006044820152606401610506565b60008160400151905081602001516001600160a01b0316816001600160a01b0316636352211e84606001516040518263ffffffff1660e01b81526004016121de91815260200190565b60206040518083038186803b1580156121f657600080fd5b505afa15801561220a573d6000803e3d6000fd5b505050506040513d601f19601f8201168201806040525081019061222e9190612de2565b6001600160a01b0316146122545760405162461bcd60e51b815260040161050690613250565b606082015160405163020604bf60e21b815230916001600160a01b0384169163081812fc916122899160040190815260200190565b60206040518083038186803b1580156122a157600080fd5b505afa1580156122b5573d6000803e3d6000fd5b505050506040513d601f19601f820116820180604052508101906122d99190612de2565b6001600160a01b0316146122ff5760405162461bcd60e51b815260040161050690613054565b60a08201516040808401516001600160a01b0316600090815260ce6020529081205490916103e89161233191906133aa565b61233b919061338a565b905060006103e88460a0015160cb5461235491906133aa565b61235e919061338a565b9050600081838660a0015161237391906133c9565b61237d91906133c9565b90508215612428576040808601516001600160a01b03908116600090815260cd6020528290205460c954885193516323b872dd60e01b8152918316939216916323b872dd916123d3919085908990600401612ffd565b602060405180830381600087803b1580156123ed57600080fd5b505af1158015612401573d6000803e3d6000fd5b505050506040513d601f19601f820116820180604052508101906124259190612f59565b50505b60c954855160ca546040516323b872dd60e01b81526001600160a01b03938416936323b872dd936124629390929116908790600401612ffd565b602060405180830381600087803b15801561247c57600080fd5b505af1158015612490573d6000803e3d6000fd5b505050506040513d601f19601f820116820180604052508101906124b49190612f59565b5060c954855160208701516040516323b872dd60e01b81526001600160a01b03909316926323b872dd926124ee9290918690600401612ffd565b602060405180830381600087803b15801561250857600080fd5b505af115801561251c573d6000803e3d6000fd5b505050506040513d601f19601f820116820180604052508101906125409190612f59565b50602085015185516060870151604051632142170760e11b81526001600160a01b038816936342842e0e9361257c939192909190600401612ffd565b600060405180830381600087803b15801561259657600080fd5b505af11580156125aa573d6000803e3d6000fd5b505050506125c5856000015186604001518760600151612941565b6060850151604080870151602080890151895160a08b015185516001600160a01b03928316815293840152928316939216917f94b48c7778c6817ef6a472e749400b400e72b80fcb9acf94197296e996bd3af5910160405180910390a4505050505050565b600061263583612beb565b801561264657506126468383612c1e565b90505b92915050565b61266681600001518260200151836040015161111b565b156126b35760405162461bcd60e51b815260206004820152601a60248201527f54686973206f7264657220616c7265616479206578697374732e0000000000006044820152606401610506565b60208101516126d2906001600160a01b03166380ac58cd60e01b61262a565b6126ee5760405162461bcd60e51b815260040161050690613226565b806060015142106127115760405162461bcd60e51b815260040161050690613190565b6020810151815160408084015190516331a9108f60e11b815260048101919091526001600160a01b0391821691831690636352211e9060240160206040518083038186803b15801561276257600080fd5b505afa158015612776573d6000803e3d6000fd5b505050506040513d601f19601f8201168201806040525081019061279a9190612de2565b6001600160a01b0316146127c05760405162461bcd60e51b8152600401610506906130c3565b604080830151905163020604bf60e21b815230916001600160a01b0384169163081812fc916127f59160040190815260200190565b60206040518083038186803b15801561280d57600080fd5b505afa158015612821573d6000803e3d6000fd5b505050506040513d601f19601f820116820180604052508101906128459190612de2565b6001600160a01b03161461286b5760405162461bcd60e51b815260040161050690613054565b8160cf612885846000015185602001518660400151611950565b6040516128929190612fe1565b9081526040805160209281900383018120845181546001600160a01b03199081166001600160a01b0392831617835586860151600184018054909216908316179055858401516002830155606080870151600384015560809687015160049093019290925587840151888601518951938a0151978a0151978552958401969096529384169316917fe6420032b5493b7dd10adf90b2964ea69a715cdecc7251b4e57865860a46288b910161162f565b60d061294e848484611950565b60405161295b9190612fe1565b90815260405190819003602001812080546001600160a01b0319908116825560018201805482169055600282018054909116905560006003820181905560048201819055600590910181905582916001600160a01b0385811692908716917f9617b39e1c2364cae1638fdd9dc06edb1611fe02ff3304a2ff823054d6c09c439190a4505050565b603380546001600160a01b038381166001600160a01b0319831681179093556040519116919082907f8be0079c531659141344cd1fd0a4f28419497f9722a3daafe3b4186f6b6457e090600090a35050565b60655460ff1615612a575760405162461bcd60e51b8152600401610506906131c7565b6065805460ff191660011790557f62e78cea01bee320cd4e420270b5ea74000d11b0c9f74754ebdbfc544b05a2586120533390565b600054610100900460ff16612ab35760405162461bcd60e51b8152600401610506906132ad565b610998612d07565b600054610100900460ff16612ae25760405162461bcd60e51b8152600401610506906132ad565b612aea612d07565b610998612d2e565b600054610100900460ff16612b195760405162461bcd60e51b8152600401610506906132ad565b612b21612d07565b610998612d5e565b600054610100900460ff16612b505760405162461bcd60e51b8152600401610506906132ad565b610998612d91565b600081604051602001612b6b9190613347565b6040516020818303038152906040528051906020012083604051602001612b929190613347565b6040516020818303038152906040528051906020012014905092915050565b600081604051602001612bc491906132f8565b6040516020818303038152906040528051906020012083604051602001612b9291906132f8565b6000612bfe826301ffc9a760e01b612c1e565b80156126495750612c17826001600160e01b0319612c1e565b1592915050565b604080516001600160e01b0319831660248083019190915282518083039091018152604490910182526020810180516001600160e01b03166301ffc9a760e01b179052905160009190829081906001600160a01b0387169061753090612c85908690612fe1565b6000604051808303818686fa925050503d8060008114612cc1576040519150601f19603f3d011682016040523d82523d6000602084013e612cc6565b606091505b5091509150602081511015612ce15760009350505050612649565b818015612cfd575080806020019051810190612cfd9190612f59565b9695505050505050565b600054610100900460ff166109985760405162461bcd60e51b8152600401610506906132ad565b600054610100900460ff16612d555760405162461bcd60e51b8152600401610506906132ad565b610998336129e2565b600054610100900460ff16612d855760405162461bcd60e51b8152600401610506906132ad565b6065805460ff19169055565b600054610100900460ff16612db85760405162461bcd60e51b8152600401610506906132ad565b6001609755565b600060208284031215612dd0578081fd5b8135612ddb81613422565b9392505050565b600060208284031215612df3578081fd5b8151612ddb81613422565b600080600080600060a08688031215612e15578081fd5b8535612e2081613422565b94506020860135612e3081613422565b94979496505050506040830135926060810135926080909101359150565b60008060008060008060c08789031215612e66578081fd5b8635612e7181613422565b95506020870135612e8181613422565b945060408701359350606087013592506080870135915060a0870135612ea681613422565b809150509295509295509295565b600080600060608486031215612ec8578283fd5b8335612ed381613422565b92506020840135612ee381613422565b929592945050506040919091013590565b60008060408385031215612f06578182fd5b8235612f1181613422565b946020939093013593505050565b60008060008060808587031215612f34578384fd5b8435612f3f81613422565b966020860135965060408601359560600135945092505050565b600060208284031215612f6a578081fd5b81518015158114612ddb578182fd5b600060208284031215612f8a578081fd5b5035919050565b600060208284031215612fa2578081fd5b5051919050565b600080600060608486031215612fbd578283fd5b83359250602084013591506040840135612fd681613422565b809150509250925092565b60008251612ff38184602087016133e0565b9190910192915050565b6001600160a01b039384168152919092166020820152604081019190915260600190565b60006020825282518060208401526130408160408501602087016133e0565b601f01601f19169190910160400192915050565b60208082526049908201527f5468652045524337323145786368616e676520636f6e7472616374206973206e60408201527f6f7420617070726f76656420746f206f706572617465207468697320455243376060820152681918903a37b5b2b71760b91b608082015260a00190565b6020808252602a908201527f5468652073656c6c657220646f6573206e6f74206f776e2074686973204552436040820152691b9918903a37b5b2b71760b11b606082015260800190565b6020808252605e908201527f5468652045524337323145786368616e676520636f6e7472616374206973206e60408201527f6f7420617070726f76656420746f206f7065726174652061207375666669636960608201527f656e7420616d6f756e74206f66207468652062757965727320574554482e0000608082015260a00190565b6020808252601b908201527f546869732073656c6c206f7264657220697320657870697265642e0000000000604082015260600190565b60208082526010908201526f14185d5cd8589b194e881c185d5cd95960821b604082015260600190565b6020808252818101527f4f776e61626c653a2063616c6c6572206973206e6f7420746865206f776e6572604082015260600190565b60208082526010908201526f24a9afa727aa2f9b9918afaa27a5a2a760811b604082015260600190565b6020808252603c908201527f5468652064657369726564204275794f7264657220226f776e65722220646f6560408201527f73206e6f74206f776e20746869732045524337323120746f6b656e2e00000000606082015260800190565b6020808252602b908201527f496e697469616c697a61626c653a20636f6e7472616374206973206e6f74206960408201526a6e697469616c697a696e6760a81b606082015260800190565b81516001600160a01b03908116825260208084015182169083015260408084015190911690820152606080830151908201526080808301519082015260a0918201519181019190915260c00190565b81516001600160a01b0390811682526020808401519091169082015260408083015190820152606080830151908201526080918201519181019190915260a00190565b6000826133a557634e487b7160e01b81526012600452602481fd5b500490565b60008160001904831182151516156133c4576133c461340c565b500290565b6000828210156133db576133db61340c565b500390565b60005b838110156133fb5781810151838201526020016133e3565b838111156111155750506000910152565b634e487b7160e01b600052601160045260246000fd5b6001600160a01b038116811461123257600080fdfea2646970667358221220830b53cbe27fbdcac8895cc008ae67d9a4bcc9d2abdedcddc4fe8e2eec87770064736f6c63430008020033",
  "linkReferences": {},
  "deployedLinkReferences": {}
}