{
  "_format": "hh-sol-artifact-1",
  "contractName": "ERC721ExchangeUpgradeable",
  "sourceName": "contracts/ERC721ExchangeUpgradeable.sol",
  "abi": [
    {
      "anonymous": false,
      "inputs": [
        {
          "indexed": true,
          "internalType": "address",
          "name": "tokenContractAddress",
          "type": "address"
        },
        {
          "indexed": true,
          "internalType": "address",
          "name": "executor",
          "type": "address"
        },
        {
          "indexed": false,
          "internalType": "uint256",
          "name": "newRoyaltiesAmount",
          "type": "uint256"
        },
        {
          "indexed": false,
          "internalType": "uint256",
          "name": "oldRoyaltiesAmount",
          "type": "uint256"
        }
      ],
      "name": "CollectionRoyaltyFeeAmountUpdated",
      "type": "event"
    },
    {
      "anonymous": false,
      "inputs": [
        {
          "indexed": true,
          "internalType": "address",
          "name": "tokenContractAddress",
          "type": "address"
        },
        {
          "indexed": true,
          "internalType": "address",
          "name": "executor",
          "type": "address"
        },
        {
          "indexed": true,
          "internalType": "address",
          "name": "newPayoutAddress",
          "type": "address"
        },
        {
          "indexed": false,
          "internalType": "address",
          "name": "oldPayoutAddress",
          "type": "address"
        }
      ],
      "name": "CollectionRoyaltyPayoutAddressUpdated",
      "type": "event"
    },
    {
      "anonymous": false,
      "inputs": [
        {
          "indexed": true,
          "internalType": "address",
          "name": "previousOwner",
          "type": "address"
        },
        {
          "indexed": true,
          "internalType": "address",
          "name": "newOwner",
          "type": "address"
        }
      ],
      "name": "OwnershipTransferred",
      "type": "event"
    },
    {
      "anonymous": false,
      "inputs": [
        {
          "indexed": false,
          "internalType": "address",
          "name": "account",
          "type": "address"
        }
      ],
      "name": "Paused",
      "type": "event"
    },
    {
      "anonymous": false,
      "inputs": [
        {
          "indexed": true,
          "internalType": "address",
          "name": "seller",
          "type": "address"
        },
        {
          "indexed": true,
          "internalType": "address",
          "name": "tokenContractAddress",
          "type": "address"
        },
        {
          "indexed": true,
          "internalType": "uint256",
          "name": "tokenId",
          "type": "uint256"
        },
        {
          "indexed": false,
          "internalType": "uint256",
          "name": "expiration",
          "type": "uint256"
        },
        {
          "indexed": false,
          "internalType": "uint256",
          "name": "price",
          "type": "uint256"
        }
      ],
      "name": "SellOrderBooked",
      "type": "event"
    },
    {
      "anonymous": false,
      "inputs": [
        {
          "indexed": true,
          "internalType": "address",
          "name": "seller",
          "type": "address"
        },
        {
          "indexed": true,
          "internalType": "address",
          "name": "tokenContractAddress",
          "type": "address"
        },
        {
          "indexed": true,
          "internalType": "uint256",
          "name": "tokenId",
          "type": "uint256"
        }
      ],
      "name": "SellOrderCanceled",
      "type": "event"
    },
    {
      "anonymous": false,
      "inputs": [
        {
          "indexed": true,
          "internalType": "address",
          "name": "seller",
          "type": "address"
        },
        {
          "indexed": false,
          "internalType": "address",
          "name": "recipient",
          "type": "address"
        },
        {
          "indexed": true,
          "internalType": "address",
          "name": "tokenContractAddress",
          "type": "address"
        },
        {
          "indexed": true,
          "internalType": "uint256",
          "name": "tokenId",
          "type": "uint256"
        },
        {
          "indexed": false,
          "internalType": "uint256",
          "name": "price",
          "type": "uint256"
        }
      ],
      "name": "SellOrderFufilled",
      "type": "event"
    },
    {
      "anonymous": false,
      "inputs": [
        {
          "indexed": true,
          "internalType": "address",
          "name": "seller",
          "type": "address"
        },
        {
          "indexed": true,
          "internalType": "address",
          "name": "tokenContractAddress",
          "type": "address"
        },
        {
          "indexed": true,
          "internalType": "uint256",
          "name": "tokenId",
          "type": "uint256"
        },
        {
          "indexed": false,
          "internalType": "uint256",
          "name": "expiration",
          "type": "uint256"
        },
        {
          "indexed": false,
          "internalType": "uint256",
          "name": "price",
          "type": "uint256"
        }
      ],
      "name": "SellOrderUpdated",
      "type": "event"
    },
    {
      "anonymous": false,
      "inputs": [
        {
          "indexed": false,
          "internalType": "address",
          "name": "account",
          "type": "address"
        }
      ],
      "name": "Unpaused",
      "type": "event"
    },
    {
      "inputs": [
        {
          "internalType": "uint256",
          "name": "__maxRoyaltyPerMille",
          "type": "uint256"
        },
        {
          "internalType": "uint256",
          "name": "__systemFeePerMille",
          "type": "uint256"
        },
        {
          "internalType": "address",
          "name": "__wethAddress",
          "type": "address"
        }
      ],
      "name": "__ERC721Exchange_init",
      "outputs": [],
      "stateMutability": "nonpayable",
      "type": "function"
    },
    {
      "inputs": [
        {
          "internalType": "address",
          "name": "tokenContractAddress",
          "type": "address"
        },
        {
          "internalType": "uint256",
          "name": "tokenId",
          "type": "uint256"
        }
      ],
      "name": "cancelSellOrder",
      "outputs": [],
      "stateMutability": "nonpayable",
      "type": "function"
    },
    {
      "inputs": [
        {
          "internalType": "address",
          "name": "tokenContractAddress",
          "type": "address"
        },
        {
          "internalType": "uint256",
          "name": "tokenId",
          "type": "uint256"
        },
        {
          "internalType": "uint256",
          "name": "expiration",
          "type": "uint256"
        },
        {
          "internalType": "uint256",
          "name": "price",
          "type": "uint256"
        }
      ],
      "name": "createSellOrder",
      "outputs": [],
      "stateMutability": "nonpayable",
      "type": "function"
    },
    {
      "inputs": [
        {
          "internalType": "address payable",
          "name": "seller",
          "type": "address"
        },
        {
          "internalType": "address",
          "name": "tokenContractAddress",
          "type": "address"
        },
        {
          "internalType": "uint256",
          "name": "tokenId",
          "type": "uint256"
        },
        {
          "internalType": "uint256",
          "name": "expiration",
          "type": "uint256"
        },
        {
          "internalType": "uint256",
          "name": "price",
          "type": "uint256"
        },
        {
          "internalType": "address payable",
          "name": "recipient",
          "type": "address"
        }
      ],
      "name": "executeSellOrder",
      "outputs": [],
      "stateMutability": "payable",
      "type": "function"
    },
    {
      "inputs": [
        {
          "internalType": "address",
          "name": "_tokenContractAddress",
          "type": "address"
        }
      ],
      "name": "getRoyaltyPayoutAddress",
      "outputs": [
        {
          "internalType": "address",
          "name": "",
          "type": "address"
        }
      ],
      "stateMutability": "view",
      "type": "function"
    },
    {
      "inputs": [
        {
          "internalType": "address",
          "name": "_tokenContractAddress",
          "type": "address"
        }
      ],
      "name": "getRoyaltyPayoutRate",
      "outputs": [
        {
          "internalType": "uint256",
          "name": "",
          "type": "uint256"
        }
      ],
      "stateMutability": "view",
      "type": "function"
    },
    {
      "inputs": [
        {
          "internalType": "address",
          "name": "seller",
          "type": "address"
        },
        {
          "internalType": "address",
          "name": "tokenContractAddress",
          "type": "address"
        },
        {
          "internalType": "uint256",
          "name": "tokenId",
          "type": "uint256"
        }
      ],
      "name": "getSellOrder",
      "outputs": [
        {
          "components": [
            {
              "internalType": "address payable",
              "name": "seller",
              "type": "address"
            },
            {
              "internalType": "address",
              "name": "tokenContractAddress",
              "type": "address"
            },
            {
              "internalType": "uint256",
              "name": "tokenId",
              "type": "uint256"
            },
            {
              "internalType": "uint256",
              "name": "expiration",
              "type": "uint256"
            },
            {
              "internalType": "uint256",
              "name": "price",
              "type": "uint256"
            }
          ],
          "internalType": "struct ERC721ExchangeUpgradeable.SellOrder",
          "name": "",
          "type": "tuple"
        }
      ],
      "stateMutability": "view",
      "type": "function"
    },
    {
      "inputs": [],
      "name": "owner",
      "outputs": [
        {
          "internalType": "address",
          "name": "",
          "type": "address"
        }
      ],
      "stateMutability": "view",
      "type": "function"
    },
    {
      "inputs": [],
      "name": "pause",
      "outputs": [],
      "stateMutability": "nonpayable",
      "type": "function"
    },
    {
      "inputs": [],
      "name": "paused",
      "outputs": [
        {
          "internalType": "bool",
          "name": "",
          "type": "bool"
        }
      ],
      "stateMutability": "view",
      "type": "function"
    },
    {
      "inputs": [],
      "name": "renounceOwnership",
      "outputs": [],
      "stateMutability": "nonpayable",
      "type": "function"
    },
    {
      "inputs": [
        {
          "internalType": "address",
          "name": "seller",
          "type": "address"
        },
        {
          "internalType": "address",
          "name": "tokenContractAddress",
          "type": "address"
        },
        {
          "internalType": "uint256",
          "name": "tokenId",
          "type": "uint256"
        }
      ],
      "name": "sellOrderExists",
      "outputs": [
        {
          "internalType": "bool",
          "name": "",
          "type": "bool"
        }
      ],
      "stateMutability": "view",
      "type": "function"
    },
    {
      "inputs": [
        {
          "internalType": "address",
          "name": "_tokenContractAddress",
          "type": "address"
        },
        {
          "internalType": "address payable",
          "name": "_payoutAddress",
          "type": "address"
        },
        {
          "internalType": "uint256",
          "name": "_payoutPerMille",
          "type": "uint256"
        }
      ],
      "name": "setRoyalty",
      "outputs": [],
      "stateMutability": "nonpayable",
      "type": "function"
    },
    {
      "inputs": [
        {
          "internalType": "uint256",
          "name": "_newSystemFeePerMille",
          "type": "uint256"
        }
      ],
      "name": "setSystemFeePerMille",
      "outputs": [],
      "stateMutability": "nonpayable",
      "type": "function"
    },
    {
      "inputs": [
        {
          "internalType": "address payable",
          "name": "_newSystemFeeWallet",
          "type": "address"
        }
      ],
      "name": "setSystemFeeWallet",
      "outputs": [],
      "stateMutability": "nonpayable",
      "type": "function"
    },
    {
      "inputs": [
        {
          "internalType": "address",
          "name": "newOwner",
          "type": "address"
        }
      ],
      "name": "transferOwnership",
      "outputs": [],
      "stateMutability": "nonpayable",
      "type": "function"
    },
    {
      "inputs": [],
      "name": "unpause",
      "outputs": [],
      "stateMutability": "nonpayable",
      "type": "function"
    },
    {
      "inputs": [
        {
          "internalType": "address",
          "name": "tokenContractAddress",
          "type": "address"
        },
        {
          "internalType": "uint256",
          "name": "tokenId",
          "type": "uint256"
        },
        {
          "internalType": "uint256",
          "name": "expiration",
          "type": "uint256"
        },
        {
          "internalType": "uint256",
          "name": "price",
          "type": "uint256"
        }
      ],
      "name": "updateSellOrder",
      "outputs": [],
      "stateMutability": "nonpayable",
      "type": "function"
    },
    {
      "inputs": [],
      "name": "version",
      "outputs": [
        {
          "internalType": "string",
          "name": "",
          "type": "string"
        }
      ],
      "stateMutability": "pure",
      "type": "function"
    },
    {
      "inputs": [],
      "name": "withdraw",
      "outputs": [],
      "stateMutability": "nonpayable",
      "type": "function"
    }
  ],
  "bytecode": "0x608060405234801561001057600080fd5b5061246a806100206000396000f3fe60806040526004361061011f5760003560e01c80635c975abb116100a0578063b50221b611610064578063b50221b614610327578063b6bbccfd14610347578063ceda1cb514610367578063ec4210ff14610387578063f2fde38b146103cb5761011f565b80635c975abb1461028e578063715018a6146102b25780638456cb59146102c75780638da5cb5b146102dc578063a831193f146102fa5761011f565b80633ccfd60b116100e75780633ccfd60b146101ef5780633f4ba83a1461020457806354fd4d501461021957806355c338aa1461024e5780635977c92c1461026e5761011f565b8063145131d0146101245780632993ed2d146101465780632df5cb23146101665780632f113b75146101bc5780633871462b146101dc575b600080fd5b34801561013057600080fd5b5061014461013f3660046120be565b6103eb565b005b34801561015257600080fd5b50610144610161366004612093565b61046a565b34801561017257600080fd5b5061019f610181366004611fae565b6001600160a01b03908116600090815260cd60205260409020541690565b6040516001600160a01b0390911681526020015b60405180910390f35b3480156101c857600080fd5b506101446101d7366004612118565b6104f3565b6101446101ea366004611fed565b610522565b3480156101fb57600080fd5b50610144610653565b34801561021057600080fd5b506101446106ac565b34801561022557600080fd5b506040805180820182526006815265076312e302e360d41b602082015290516101b39190612184565b34801561025a57600080fd5b50610144610269366004612053565b6106e0565b34801561027a57600080fd5b506101446102893660046120be565b610981565b34801561029a57600080fd5b5060655460ff165b60405190151581526020016101b3565b3480156102be57600080fd5b506101446109f0565b3480156102d357600080fd5b50610144610a24565b3480156102e857600080fd5b506033546001600160a01b031661019f565b34801561030657600080fd5b5061031a610315366004612053565b610a56565b6040516101b39190612344565b34801561033357600080fd5b50610144610342366004611fae565b610b67565b34801561035357600080fd5b50610144610362366004612130565b610bb3565b34801561037357600080fd5b506102a2610382366004612053565b610cbd565b34801561039357600080fd5b506103bd6103a2366004611fae565b6001600160a01b0316600090815260ce602052604090205490565b6040519081526020016101b3565b3480156103d757600080fd5b506101446103e6366004611fae565b610d3c565b60655460ff16156104175760405162461bcd60e51b815260040161040e90612270565b60405180910390fd5b60006040518060a0016040528061042b3390565b6001600160a01b03168152602001866001600160a01b0316815260200185815260200184815260200183815250905061046381610dd7565b5050505050565b60655460ff161561048d5760405162461bcd60e51b815260040161040e90612270565b610498338383610cbd565b6104e45760405162461bcd60e51b815260206004820152601f60248201527f546869732073656c6c206f7264657220646f6573206e6f742065786973742e00604482015260640161040e565b6104ef338383611100565b5050565b6033546001600160a01b0316331461051d5760405162461bcd60e51b815260040161040e9061229a565b60cb55565b60655460ff16156105455760405162461bcd60e51b815260040161040e90612270565b600260975414156105985760405162461bcd60e51b815260206004820152601f60248201527f5265656e7472616e637947756172643a207265656e7472616e742063616c6c00604482015260640161040e565b6002609755348211156106095760405162461bcd60e51b815260206004820152603360248201527f596f7572207472616e73616374696f6e20646f65736e2774206861766520746860448201527232903932b8bab4b932b2103830bcb6b2b73a1760691b606482015260840161040e565b6040805160a0810182526001600160a01b0380891682528716602082015290810185905260608101849052608081018390526106458183611197565b505060016097555050505050565b6033546001600160a01b0316331461067d5760405162461bcd60e51b815260040161040e9061229a565b6040514790339082156108fc029083906000818181858888f193505050501580156104ef573d6000803e3d6000fd5b6033546001600160a01b031633146106d65760405162461bcd60e51b815260040161040e9061229a565b6106de6117d4565b565b60cc54811115600a60cc546106f59190612387565b6040517f526f79616c7479206d757374206265206265747765656e203020616e642000006020820152603e810191909152602560f81b605e820152605f01604051602081830303815290604052906107605760405162461bcd60e51b815260040161040e9190612184565b5061077b6001600160a01b0384166380ac58cd60e01b611867565b6107975760405162461bcd60e51b815260040161040e906122cf565b6000839050806001600160a01b0316638da5cb5b6040518163ffffffff1660e01b815260040160206040518083038186803b1580156107d557600080fd5b505afa1580156107e9573d6000803e3d6000fd5b505050506040513d601f19601f8201168201806040525081019061080d9190611fd1565b6001600160a01b0316336001600160a01b0316148061083657506033546001600160a01b031633145b61087b5760405162461bcd60e51b8152602060048201526016602482015275105111149154d4d7d393d517d055551213d49256915160521b604482015260640161040e565b6001600160a01b03848116600081815260cd602090815260409182902054825190851681529151938716933393927f22b4c9bae1c03b433a3b239b13770550aa93e69b0ac8b7becd4345d2bb2b93f692908290030190a46001600160a01b03848116600090815260cd6020526040902080546001600160a01b0319169185169190911790556109073390565b6001600160a01b03858116600081815260ce602090815260409182902054825188815291820152939092169290917fc79f434969d42d2d3a041a740a67d2c62cf2613f5c52b5e90e2fdda35a5de9ec910160405180910390a3506001600160a01b03909216600090815260ce602052604090209190915550565b60655460ff16156109a45760405162461bcd60e51b815260040161040e90612270565b60006040518060a001604052806109b83390565b6001600160a01b03168152602001866001600160a01b031681526020018581526020018481526020018381525090506104638161188c565b6033546001600160a01b03163314610a1a5760405162461bcd60e51b815260040161040e9061229a565b6106de6000611bae565b6033546001600160a01b03163314610a4e5760405162461bcd60e51b815260040161040e9061229a565b6106de611c00565b610a9a6040518060a0016040528060006001600160a01b0316815260200160006001600160a01b031681526020016000815260200160008152602001600081525090565b610aa5848484610cbd565b610af15760405162461bcd60e51b815260206004820152601f60248201527f546869732073656c6c206f7264657220646f6573206e6f742065786973742e00604482015260640161040e565b60cf610afe858585611c58565b604051610b0b9190612168565b90815260408051918290036020908101832060a08401835280546001600160a01b039081168552600182015416918401919091526002810154918301919091526003810154606083015260040154608082015290509392505050565b6033546001600160a01b03163314610b915760405162461bcd60e51b815260040161040e9061229a565b60ca80546001600160a01b0319166001600160a01b0392909216919091179055565b600054610100900460ff16610bce5760005460ff1615610bd2565b303b155b610c355760405162461bcd60e51b815260206004820152602e60248201527f496e697469616c697a61626c653a20636f6e747261637420697320616c72656160448201526d191e481a5b9a5d1a585b1a5e995960921b606482015260840161040e565b600054610100900460ff16158015610c60576000805460ff1961ff0019909116610100171660011790555b610c68611cb5565b610c70611ce4565b610c78611d1b565b610c80611d52565b60cc84905560cb83905560c980546001600160a01b0319166001600160a01b0384161790558015610cb7576000805461ff00191690555b50505050565b60008060cf610ccd868686611c58565b604051610cda9190612168565b908152604080516020928190038301812060a08201835280546001600160a01b03908116835260018201541693820193909352600283015491810191909152600382015460608201819052600490920154608090910152421095945050505050565b6033546001600160a01b03163314610d665760405162461bcd60e51b815260040161040e9061229a565b6001600160a01b038116610dcb5760405162461bcd60e51b815260206004820152602660248201527f4f776e61626c653a206e6577206f776e657220697320746865207a65726f206160448201526564647265737360d01b606482015260840161040e565b610dd481611bae565b50565b610dee816000015182602001518360400151610cbd565b610e3a5760405162461bcd60e51b815260206004820152601a60248201527f54686973206f7264657220646f65736e2774206578697374732e000000000000604482015260640161040e565b6020810151610e59906001600160a01b03166380ac58cd60e01b611867565b610e755760405162461bcd60e51b815260040161040e906122cf565b80606001514210610ec85760405162461bcd60e51b815260206004820152601b60248201527f546869732073656c6c206f7264657220697320657870697265642e0000000000604482015260640161040e565b6020810151815160408084015190516331a9108f60e11b815260048101919091526001600160a01b0391821691831690636352211e9060240160206040518083038186803b158015610f1957600080fd5b505afa158015610f2d573d6000803e3d6000fd5b505050506040513d601f19601f82011682018060405250810190610f519190611fd1565b6001600160a01b031614610f775760405162461bcd60e51b815260040161040e90612226565b604080830151905163020604bf60e21b815230916001600160a01b0384169163081812fc91610fac9160040190815260200190565b60206040518083038186803b158015610fc457600080fd5b505afa158015610fd8573d6000803e3d6000fd5b505050506040513d601f19601f82011682018060405250810190610ffc9190611fd1565b6001600160a01b0316146110225760405162461bcd60e51b815260040161040e906121b7565b8160cf61103c846000015185602001518660400151611c58565b6040516110499190612168565b9081526040805160209281900383018120845181546001600160a01b03199081166001600160a01b0392831617835586860151600184018054909216908316179055858401516002830155606080870151600384015560809687015160049093019290925587840151888601518951938a0151978a0151978552958401969096529384169316917fa536b30631962e18c4c8227fa809220e94ea269bac35859efbc569ccf78982f091015b60405180910390a45050565b60cf61110d848484611c58565b60405161111a9190612168565b90815260405190819003602001812080546001600160a01b03199081168255600182018054909116905560006002820181905560038201819055600490910181905582916001600160a01b0385811692908716917f1df1e161692f4f870c425180866da985448ed76f0ff746b99437c81f09254de99190a4505050565b60006111b0836000015184602001518560400151610a56565b90506111bc8184611d81565b61122e5760405162461bcd60e51b815260206004820152603c60248201527f5061737365642073656c6c206f72646572206461746120646f65736e2774206560448201527f7175616c2073746f7265642073656c6c206f7264657220646174612e00000000606482015260840161040e565b602081015161124d906001600160a01b03166380ac58cd60e01b611867565b6112695760405162461bcd60e51b815260040161040e906122cf565b806060015142106112bc5760405162461bcd60e51b815260206004820152601c60248201527f546869732073656c6c206f726465722068617320657870697265642e00000000604482015260640161040e565b6020810151815160408084015190516331a9108f60e11b815260048101919091526001600160a01b0391821691831690636352211e9060240160206040518083038186803b15801561130d57600080fd5b505afa158015611321573d6000803e3d6000fd5b505050506040513d601f19601f820116820180604052508101906113459190611fd1565b6001600160a01b03161461136b5760405162461bcd60e51b815260040161040e90612226565b604080830151905163020604bf60e21b815230916001600160a01b0384169163081812fc916113a09160040190815260200190565b60206040518083038186803b1580156113b857600080fd5b505afa1580156113cc573d6000803e3d6000fd5b505050506040513d601f19601f820116820180604052508101906113f09190611fd1565b6001600160a01b0316146114165760405162461bcd60e51b815260040161040e906121b7565b6020808301516001600160a01b0316600090815260ce90915260408120546103e8906114439034906123a7565b61144d9190612387565b905060006103e83460cb5461146291906123a7565b61146c9190612387565b905060008161147b84346123c6565b61148591906123c6565b90508215611569576020858101516001600160a01b03908116600090815260cd9092526040808320549051911691908190839087908381818185875af1925050503d80600081146114f2576040519150601f19603f3d011682016040523d82523d6000602084013e6114f7565b606091505b5091509150816115655760405162461bcd60e51b815260206004820152603360248201527f4661696c656420746f2073656e642045544820746f20636f6c6c656374696f6e60448201527232103937bcb0b63a34b2b9903bb0b63632ba1760691b606482015260840161040e565b5050505b60ca5460405160009182916001600160a01b039091169085908381818185875af1925050503d80600081146115ba576040519150601f19603f3d011682016040523d82523d6000602084013e6115bf565b606091505b5091509150816116225760405162461bcd60e51b815260206004820152602860248201527f4661696c656420746f2073656e642045544820746f2073797374656d20666565604482015267103bb0b63632ba1760c11b606482015260840161040e565b60008088600001516001600160a01b03168560405160006040518083038185875af1925050503d8060008114611674576040519150601f19603f3d011682016040523d82523d6000602084013e611679565b606091505b5091509150816116cb5760405162461bcd60e51b815260206004820152601d60248201527f4661696c656420746f2073656e642045544820746f2073656c6c65722e000000604482015260640161040e565b88516040808b01519051632142170760e11b81526001600160a01b0392831660048201528c831660248201526044810191909152908916906342842e0e90606401600060405180830381600087803b15801561172657600080fd5b505af115801561173a573d6000803e3d6000fd5b5050505061175589600001518a602001518b60400151611100565b886040015189602001516001600160a01b03168a600001516001600160a01b03167f9fe03e931575da48530da93cbe04c8c5b18051fa26a3ab75787c0e5881db943e8d8d608001516040516117bf9291906001600160a01b03929092168252602082015260400190565b60405180910390a45050505050505050505050565b60655460ff1661181d5760405162461bcd60e51b815260206004820152601460248201527314185d5cd8589b194e881b9bdd081c185d5cd95960621b604482015260640161040e565b6065805460ff191690557f5db9ee0a495bf2e6ff9c91a7834c1ba4fdd244a5e8aa4e537bd38aeae4b073aa335b6040516001600160a01b03909116815260200160405180910390a1565b600061187283611dda565b801561188357506118838383611e0d565b90505b92915050565b6118a3816000015182602001518360400151610cbd565b156118f05760405162461bcd60e51b815260206004820152601a60248201527f54686973206f7264657220616c7265616479206578697374732e000000000000604482015260640161040e565b602081015161190f906001600160a01b03166380ac58cd60e01b611867565b61192b5760405162461bcd60e51b815260040161040e906122cf565b8060600151421061197e5760405162461bcd60e51b815260206004820152601b60248201527f546869732073656c6c206f7264657220697320657870697265642e0000000000604482015260640161040e565b6020810151815160408084015190516331a9108f60e11b815260048101919091526001600160a01b0391821691831690636352211e9060240160206040518083038186803b1580156119cf57600080fd5b505afa1580156119e3573d6000803e3d6000fd5b505050506040513d601f19601f82011682018060405250810190611a079190611fd1565b6001600160a01b031614611a2d5760405162461bcd60e51b815260040161040e90612226565b604080830151905163020604bf60e21b815230916001600160a01b0384169163081812fc91611a629160040190815260200190565b60206040518083038186803b158015611a7a57600080fd5b505afa158015611a8e573d6000803e3d6000fd5b505050506040513d601f19601f82011682018060405250810190611ab29190611fd1565b6001600160a01b031614611ad85760405162461bcd60e51b815260040161040e906121b7565b8160cf611af2846000015185602001518660400151611c58565b604051611aff9190612168565b9081526040805160209281900383018120845181546001600160a01b03199081166001600160a01b0392831617835586860151600184018054909216908316179055858401516002830155606080870151600384015560809687015160049093019290925587840151888601518951938a0151978a0151978552958401969096529384169316917fe6420032b5493b7dd10adf90b2964ea69a715cdecc7251b4e57865860a46288b91016110f4565b603380546001600160a01b038381166001600160a01b0319831681179093556040519116919082907f8be0079c531659141344cd1fd0a4f28419497f9722a3daafe3b4186f6b6457e090600090a35050565b60655460ff1615611c235760405162461bcd60e51b815260040161040e90612270565b6065805460ff191660011790557f62e78cea01bee320cd4e420270b5ea74000d11b0c9f74754ebdbfc544b05a25861184a3390565b604051606084811b6bffffffffffffffffffffffff199081166020840152602d60f81b6034840181905285831b90911660358401526049830152604a820183905290606a0160405160208183030381529060405290509392505050565b600054610100900460ff16611cdc5760405162461bcd60e51b815260040161040e906122f9565b6106de611ef6565b600054610100900460ff16611d0b5760405162461bcd60e51b815260040161040e906122f9565b611d13611ef6565b6106de611f1d565b600054610100900460ff16611d425760405162461bcd60e51b815260040161040e906122f9565b611d4a611ef6565b6106de611f4d565b600054610100900460ff16611d795760405162461bcd60e51b815260040161040e906122f9565b6106de611f80565b600081604051602001611d949190612344565b6040516020818303038152906040528051906020012083604051602001611dbb9190612344565b6040516020818303038152906040528051906020012014905092915050565b6000611ded826301ffc9a760e01b611e0d565b80156118865750611e06826001600160e01b0319611e0d565b1592915050565b604080516001600160e01b0319831660248083019190915282518083039091018152604490910182526020810180516001600160e01b03166301ffc9a760e01b179052905160009190829081906001600160a01b0387169061753090611e74908690612168565b6000604051808303818686fa925050503d8060008114611eb0576040519150601f19603f3d011682016040523d82523d6000602084013e611eb5565b606091505b5091509150602081511015611ed05760009350505050611886565b818015611eec575080806020019051810190611eec91906120f8565b9695505050505050565b600054610100900460ff166106de5760405162461bcd60e51b815260040161040e906122f9565b600054610100900460ff16611f445760405162461bcd60e51b815260040161040e906122f9565b6106de33611bae565b600054610100900460ff16611f745760405162461bcd60e51b815260040161040e906122f9565b6065805460ff19169055565b600054610100900460ff16611fa75760405162461bcd60e51b815260040161040e906122f9565b6001609755565b600060208284031215611fbf578081fd5b8135611fca8161241f565b9392505050565b600060208284031215611fe2578081fd5b8151611fca8161241f565b60008060008060008060c08789031215612005578182fd5b86356120108161241f565b955060208701356120208161241f565b945060408701359350606087013592506080870135915060a08701356120458161241f565b809150509295509295509295565b600080600060608486031215612067578283fd5b83356120728161241f565b925060208401356120828161241f565b929592945050506040919091013590565b600080604083850312156120a5578182fd5b82356120b08161241f565b946020939093013593505050565b600080600080608085870312156120d3578384fd5b84356120de8161241f565b966020860135965060408601359560600135945092505050565b600060208284031215612109578081fd5b81518015158114611fca578182fd5b600060208284031215612129578081fd5b5035919050565b600080600060608486031215612144578283fd5b8335925060208401359150604084013561215d8161241f565b809150509250925092565b6000825161217a8184602087016123dd565b9190910192915050565b60006020825282518060208401526121a38160408501602087016123dd565b601f01601f19169190910160400192915050565b60208082526049908201527f5468652045524337323145786368616e676520636f6e7472616374206973206e60408201527f6f7420617070726f76656420746f206f706572617465207468697320455243376060820152681918903a37b5b2b71760b91b608082015260a00190565b6020808252602a908201527f5468652073656c6c657220646f6573206e6f74206f776e2074686973204552436040820152691b9918903a37b5b2b71760b11b606082015260800190565b60208082526010908201526f14185d5cd8589b194e881c185d5cd95960821b604082015260600190565b6020808252818101527f4f776e61626c653a2063616c6c6572206973206e6f7420746865206f776e6572604082015260600190565b60208082526010908201526f24a9afa727aa2f9b9918afaa27a5a2a760811b604082015260600190565b6020808252602b908201527f496e697469616c697a61626c653a20636f6e7472616374206973206e6f74206960408201526a6e697469616c697a696e6760a81b606082015260800190565b81516001600160a01b0390811682526020808401519091169082015260408083015190820152606080830151908201526080918201519181019190915260a00190565b6000826123a257634e487b7160e01b81526012600452602481fd5b500490565b60008160001904831182151516156123c1576123c1612409565b500290565b6000828210156123d8576123d8612409565b500390565b60005b838110156123f85781810151838201526020016123e0565b83811115610cb75750506000910152565b634e487b7160e01b600052601160045260246000fd5b6001600160a01b0381168114610dd457600080fdfea2646970667358221220e574e8e078f19579c18630a9269a63bc8636f1fbb52e86403ee97a314453893464736f6c63430008020033",
  "linkReferences": {},
  "deployedLinkReferences": {}
}